:020000041000EA
:100000000000022001120010551000103F120010D5
:1000100041120010431200104512001000000000B1
:100020000000000000000000000000004712001067
:1000300049120010000000004B1200104D12001079
:1000400051120010531200105512001057120010D8
:10005000591200105B1200105D1200105F120010A8
:100060006112001063120010651200106712001078
:10007000691200106B1200106D1200106F12001048
:100080007112001073120010751200107712001018
:10009000791200107B1200107D1200107F120010E8
:1000A000C90F0010D30F0010851200108712001026
:1000B000891200108B1200108D1200108F12001088
:1000C0009112001093120010951200109712001058
:1000D000991200109B1200109D1200109F12001028
:1000E000A1120010A3120010A5120010A7120010F8
:1000F000A9120010AB120010AD120010AF120010C8
:10010000B1120010B3120010B5120010B712001097
:10011000B9120010BB120010BD120010BF12001067
:10012000C1120010C3120010C5120010C712001037
:10013000C9120010CB120010CD120010CF12001007
:10014000D1120010D3120010D5120010D7120010D7
:10015000D9120010DB120010DD120010DF120010A7
:10016000E1120010E3120010E5120010E712001077
:10017000E9120010EB120010ED120010EF12001047
:10018000F1120010F3120010F5120010F712001017
:10019000F9120010FB120010FD120010FF120010E7
:1001A00001130010031300100513001007130010B3
:1001B000091300100B1300100D1300100F13001083
:1001C0001113001013130010151300101713001053
:1001D000191300101B1300101D1300101F13001023
:1001E00010B5054C237833B9044B13B10448AFF371
:1001F00000800123237010BD000A002000000000D1
:1002000034F8011008B5034B1BB103490348AFF3A1
:10021000008008BD00000000040A002034F801102E
:1002200004E011F8012B40F8042B1A46531E002A53
:10023000F7DC704708B5144A136823F4805323F0A1
:100240000103136002F58002136823F4805323F046
:100250000103136002F58002136823F4805323F036
:100260000103136002F58002136823F4805323F026
:1002700001031360012000F067FF044801F07AFFDA
:10028000034B186008BD00BF000010500000014083
:100290001C0A002004E051F8042B40F8042B1A46F5
:1002A000531E002AF7DC70470A4B07E053F8041B83
:1002B00042F8041B0146481E0029F7D119680A4676
:1002C00031B141F001010120087059680833F2E7AB
:1002D000012070475CC5001008B560220A490B4830
:1002E000FFF79EFF60220A490A48FFF799FF59224B
:1002F00009490A48FFF794FF5A2209490948FFF7BC
:100300008FFF012008BD00BFE4C300100080105023
:1003100044C4001000805050A4C4001000809050CD
:1003200000C500100080D0500D4B00221A600D480F
:100330000D49016040F20E4242600823836000F5DF
:10034000800001604260836000F5800001604260CF
:10035000836000F580000160426083600120704787
:100360000010005000001050080010002DE9F04F60
:10037000FA4B4FF0630CC3F810C04FF40062C3F89F
:1003800010234FF40054C3F8104448F62032C3F849
:1003900090254FF47842C3F8102AF827C3F8107656
:1003A0004FF4C856C3F810614FF4804EC3F890E77D
:1003B0004FF00112C3F81027E94AC2F810C04FF4F9
:1003C0000061C2F81013C2F810444FF4326BC2F847
:1003D00090B54FF47841C2F8101AC2F81076C2F8FE
:1003E0001061C2F890E7DF49C1F810C04FF4006017
:1003F000C1F81003C1F81044C1F890B54FF478402B
:10040000C1F8100AC1F81076C1F81061C1F890E780
:10041000D548C0F810C04FF40065C0F81053C0F8BC
:100420001044C0F890B54FF47845C0F8105AC0F8A1
:100430001076C0F8106145F23006C0F890674FF0B2
:100440005B09C3F814904FF48038C3F81483C3F8E1
:1004500014444FF40065C3F8145542F62035C3F830
:1004600094554FF47845C3F8145ADFF800C3C3F825
:1004700014C64FF4C056C3F814614FF48257C3F842
:1004800094774FF0FF37C3F81477C2F81490C2F88E
:100490001483C2F814444FF40065C2F81455C2F82E
:1004A00094B54FF47845C2F8145AC2F814C6C2F88D
:1004B0001461C2F81477C1F81490C1F81483C1F81C
:1004C00014444FF40065C1F81455C1F894B54FF4C5
:1004D0007845C1F8145AC1F814C6C1F81461C0F8BF
:1004E0001490C0F81483C0F814444FF40065C0F8A9
:1004F0001455C0F894B54FF47845C0F8145AC0F8B4
:1005000014C6C0F8146154259D610126C3F8986192
:10051000C3F898624FF40065C3F81853C3F8184441
:100520004CF6A03CC3F898C54FF4BC3AC3F818AADF
:100530004FF4BC79C3F818964FF4B058C3F818813B
:10054000C3F898E754259561C2F89861C2F898629B
:100550004FF40065C2F81853C2F818444FF43A6CCF
:10056000C2F898C5C2F818AAC2F81896C2F818813D
:10057000C2F898E754258D61C1F89861C1F8986276
:100580004FF40065C1F81853C1F81844C1F898C574
:10059000C1F818AAC1F81896C1F81881C1F898E7EF
:1005A000C1F8187754258561C0F89861C0F8986241
:1005B0004FF40065C0F81853C0F81844C0F898C547
:1005C000C0F818AAC0F81896C0F818814FF4A04EC9
:1005D000C0F898E7C0F818774FF0240AC3F81CA0B9
:1005E000C3F89C61C3F89C62C3F81C44C3F81C5553
:1005F00046F6A03EC3F89CE54FF4FC3EC3F81CEA67
:10060000DFF86C91C3F81C9641F21058C3F81C81B6
:10061000C3F89C47C3F81C77C2F81CA0C2F89C61C1
:10062000C2F89C62C2F81C44C2F81C55C2F89CC5B2
:10063000C2F81CEAC2F81C96C2F81C814FF440555F
:10064000C2F89C57C2F81C77C1F81CA0C1F89C6185
:10065000C1F89C62C1F81C444FF40065C1F81C55F8
:10066000C1F89CC5C1F81CEAC1F81C96C1F81C81F0
:10067000C1F89C47C1F81C77C0F81CA0C0F89C6169
:10068000C0F89C62C0F81C44C0F81C55C0F89CC55A
:10069000C0F81CEAC0F81C96C0F81C81C0F89C4742
:1006A0004FF00D09C3F82090C3F82053C3F820443D
:1006B0004EF6203CC3F8A0C5C3F820EADFF8B480AA
:1006C000C3F820864FF4A85CC3F820C1C3F8A04744
:1006D000C3F82077C2F82090C2F82053C2F8204413
:1006E000C2F8A0B5C2F820EAC2F82086C2F820C13C
:1006F000C2F8A047C2F82077C1F82090C1F8205373
:10070000C1F82044C1F8A0B5C1F820EAC1F820869C
:10071000C1F820C14FF44055C1F8A057C1F8207767
:10072000C0F820904FF40065C0F82053C0F8204472
:10073000C0F8A0B5C0F820EAC0F82086C0F820C1F3
:10074000C0F8A047C0F82077DFF82C80C3F82480D9
:10075000C3F8A461C3F8A46210E000BF0000105009
:1007600000005050000090500000D05018022001AE
:10077000900598039807A0050B000100C3F82444D6
:10078000C3F824554EF6A02CC3F8A4C54FF4784501
:10079000C3F8245ADFF8CCE2C3F824E64FF4A05C97
:1007A000C3F824C14FF4C049C3F8A497C3F8247711
:1007B000C2F82480C2F8A461C2F8A462C2F824443A
:1007C0004FF40065C2F824554FF42A6AC2F8A4A574
:1007D0004FF47845C2F8245AC2F824E6C2F824C17E
:1007E00047F24005C2F8A457C2F82477C1F8248024
:1007F000C1F8A461C1F8A462C1F824444FF40065B3
:10080000C1F82455C1F8A4A54FF47845C1F8245A7D
:10081000C1F824E6C1F824C1C1F8A497C1F824772F
:10082000C0F82480C0F8A461C0F8A462C0F82444D1
:100830004FF40065C0F82455C0F8A4A54FF47845DE
:10084000C0F8245AC0F824E6C0F824C1C0F8A49720
:10085000C0F824774FF40065C3F82853C3F8A863A1
:10086000C3F8284442F62035C3F8A855DFF8F881CC
:10087000C3F8288ADFF8F4E1C3F828E64FF4807C57
:10088000C3F828C14FF48059C3F8A897C3F8287754
:100890004FF40065C2F82853C2F8A863C2F8284490
:1008A000C2F8A8B5C2F8288AC2F828E6C2F828C15A
:1008B000C2F82877C1F82853C1F8A863C1F82844C2
:1008C000C1F8A8B5C1F8288AC1F828E6C1F828C13E
:1008D000C0F82853C0F8A863C0F82844C0F8A8B5E9
:1008E000C0F8288AC0F828E6C0F828C14FF4D03AEA
:1008F000C3F82CA3C3F8AC63C3F82C44C3F82C553D
:100900004EF6201BC3F8ACB54FF49049C3F82C9AAF
:10091000DFF85C81C3F82C86C3F82CC1C3F8AC4760
:10092000C3F82C77C2F82CA3C2F8AC63C2F82C44ED
:10093000C2F82C554FF4126EC2F8ACE5C2F82C9AEE
:10094000C2F82C86C2F82CC1C2F8AC47C2F82C778A
:10095000C1F82CA3C1F8AC63C1F82C44C1F82C55E4
:10096000C1F8ACE5C1F82C9AC1F82C86C1F82CC1AD
:10097000C1F8AC47C1F82C77C0F82CA3C0F8AC6321
:10098000C0F82C44C0F82C55C0F8ACE5C0F82C9A3F
:10099000C0F82C86C0F82CC143F25008C0F8AC87D0
:1009A000C0F82C774FF49239C3F83093C3F8B06392
:1009B000C3F83044C3F83055C3F8B0B54FF44048DD
:1009C000C3F8308A2548C3F83006C3F830C1C3F8ED
:1009D000B047C3F83077C2F83093C2F8B063C2F8BA
:1009E0003044C2F83055C2F8B0E5C2F8308AC2F8D7
:1009F0003006C2F830C1C2F8B047C2F83077C1F84B
:100A00003093C1F8B063C1F83044C1F83055C1F833
:100A1000B0E5C1F8308AC1F83006C1F830C14FF4F2
:100A20004153C1F8B037C1F830770D4BC3F830935C
:100A30003046C3F8B063C3F83044C3F83055C3F848
:100A4000B0E5C3F8308A0549C3F83016C3F830C1A1
:100A5000C3F8B047C3F83077BDE8F08FA035E03475
:100A60000000D050880A900903F80100B832C02A6B
:100A70000834C03310B50C4B00221A600B4C0C4BE1
:100A8000236001330B4A136002F58002136002F504
:100A900080021360084801F06BFB012000F032FB7C
:100AA000064B2360012010BD1C0A002000001050DE
:100AB000080810000000505000000140090010001C
:100AC00010B40022234C06E084460CF8023B1B0ABB
:100AD000437060460132022A11DC236804F50044A9
:100AE000022AF1D003704FEA132C80F801C04FEABC
:100AF000134C80F802C01B0EC3700430EAE70022DA
:100B000015480BE0036800F500400B701C0A4C70A0
:100B10001C0C8C701B0ECB7001320431022AF1DDEB
:100B200000220E4802E001F8013B0132032A0DDCED
:100B3000036800F50040032AF5D00B701C0A4C70C6
:100B40001C0C8C701B0ECB700431EEE701205DF89D
:100B5000044B7047008000510090C05000100051BD
:100B600010B50C4A0F24D4605460146000249460C3
:100B7000D4604FF08042936923F470330B430343F6
:100B80009361192000F090FD0349652000F042FDBB
:100B9000012010BD005800403502001008B5192092
:100BA00000F060FD064B0F22DA609A6842F00F02F7
:100BB0009A6000221A605A60DA60012008BD00BF06
:100BC0000058004008B5642202490348FFF762FB61
:100BD000002008BD480A00200000405008B54FF42E
:100BE00080310020FFF7BCFFFFF79EFBFFF75CFBA7
:100BF000FFF772FBFFF7BAFB002008BD08B5FFF74F
:100C000039FF01E001F008F9024B1B68002BF9D015
:100C1000002008BD1C0A002030B585B0124C134DD1
:100C200021462846FFF74CFF01A9284600F04CF862
:100C30007F220021204600F059F8D4F80A30CDF880
:100C40000930A37B8DF80D30002408E004F1100377
:100C50006B4413F90C1C064800F0D2F80134092C3F
:100C6000F4DD002005B030BD200A00203C0A002041
:100C700040F1011008B5FFF791FF002008BD00000A
:100C800000B589B00DF1040C0C4C0FCCACE80F0092
:100C900094E807008CE80700094801F0A3F8042055
:100CA00000F0A2FD00F076FB064800F079FC01A8F8
:100CB00000F04AF801A800F01FF9FBE748F1011025
:100CC00000A0024080841E00002302E00122CA54DA
:100CD0000133042B09DC10F903C0C21892F9052076
:100CE0009445F3DB0022CA54F2E77047914218DAC8
:100CF0000023182B14DC00B502E00133182B0DDCA7
:100D000000EB030C10F903E08E4500DCC1549CF9A4
:100D100000E09645F1DB8CF80020EEE75DF804FB7F
:100D2000704770474378007843EA0020704700001E
:100D300008B5034801F094FE024B01221A7008BD69
:100D400000200440D80B002003464068002845D00E
:100D50001A68002A44D070B5002102F0F5FF224B3A
:100D6000224E1E60224A5A60224A9A600022DA60AD
:100D70004FF4FA711961DA611F4C4FF48045C4F8E1
:100D80008051C4F88050BFF34F8FBFF36F8F1B4962
:100D90000E2000F03FFC256002224FF4E131304686
:100DA00001F048FD034608B1184670BD02213046E7
:100DB00001F046FE03460028F6D1304601F03EFE23
:100DC00003460028F0D1304601F036FE03460028E5
:100DD000EAD1054801F042FE0346E5E7042300E0BE
:100DE00004231846704700BFDC0B0020002004409D
:100DF000F00D0020FC0B002000E100E0310D0010A0
:100E00000FB430B583B0069AE2B107AB01934FF44B
:100E10007A710E48406806F0E1FC0546002409E0BE
:100E20000A4B5A68115D186801F0F8FD642000F063
:100E3000B7FB0134AC42F3DB002003B0BDE8304027
:100E400004B070476FF00300F7E700BFDC0B002031
:100E500038B500250C4B1D700C4CE26829466068C3
:100E600002F072FF22692946A06802F06DFF08486F
:100E700001F0E4FD00B138BD054801F0DDFD0028BA
:100E8000F9D16561A561F6E7D80B0020DC0B0020E5
:100E900000200440F0B583B00746002500958DF88A
:100EA00004501348FFF73EFF064604240AE0684654
:100EB00002F0D2FB47F825000135002300938DF89E
:100EC00004300134B31DA3420ED3632D0CD8094B5B
:100ED0001B5D2C2BEBD0DD2BE9D0012205492144F1
:100EE000684603F03BF8ECE7002003B0F0BD00BF1C
:100EF000FE0B0020FC0B002038B5294B1B78DBB221
:100F0000012B02D00024204638BD0546254800F0BC
:100F100047FB254B186801F09FFD10F0030F0BD124
:100F20002248FFF7FFFEA0F52A43013B032B34D8EC
:100F3000DFE803F0060E1C281D48FFF761FFEFE70E
:100F4000AB689847044600BB1A48FFF759FF1CE0FE
:100F500029686868FFF79EFF0446B0B9EB689847B8
:100F6000044690B91348FFF74BFF0EE0EB68984733
:100F7000044650B92B699847044630B90D48FFF72D
:100F80003FFF02E06B699847044614B9FFF760FF22
:100F9000B9E70748FFF734FFF8E70024F6E700BF9A
:100FA000D80B0020400D0300DC0B0020FC0B0020C0
:100FB00064F1011068F1011008B50346014802F020
:100FC00021FFFEE76CF1011008B5002000F060FE83
:100FD00008BD08B5012000F05BFE08BD08B502227F
:100FE0004FF4E131024B186801F024FC08BD00BF4A
:100FF0000000002010B5002000F056FB012000F09A
:1010000053FB402000F050FBFFF7E8FF041E0CDB11
:1010100000F0DAF858B900F0B9F8044660B9094BA5
:101020004322DA60084800F0BBFA204610BD712266
:1010300006490748FFF7C0FF762204490448FFF736
:10104000BBFF00BF00440040400D030088F10110C9
:10105000C8F1011000BF70474FF0FF3070474FF0EC
:10106000FF3070474FF0FF3070474FF0FF30704750
:101070002DE9F041D8B90C4690460546074602E0F6
:1010800001340137013545450EDA0C4E304601F08A
:10109000C7FCC1B22170304601F0C4FC23780D2B8F
:1010A000EED10A23237001373846BDE8F08102F003
:1010B000D7FA092303604FF0FF37F5E7002004401B
:1010C00070B50138012813D80C461646002505E0F6
:1010D00014F8011B0A4801F0A5FC0135B5420DDAF0
:1010E00023780A2BF4D10D21054801F09BFCEFE792
:1010F00002F0B6FA092303604FF0FF36304670BDA8
:101100000020044010B504460B4B1B6883420CD9E9
:101110000A4A04EB440302EB830304EB44045968DA
:1011200052F8240000F09AFD10BD3B220449054806
:10113000FFF742FFECE700BFF4F10110D0F101101E
:1011400014F2011040F2011010B504460B4B1B685D
:1011500083420CD90A4A04EB440302EB830304EBF9
:101160004404596852F8240000F060FD10BD462286
:1011700004490548FFF720FFECE700BFF4F1011038
:10118000D0F1011014F2011040F2011038B5002422
:10119000254600E001340A4B1B68A3420ED92046C5
:1011A000FFF7D2FF04EB4403064800EB830000F096
:1011B0002DFC0028EED06FF00705EBE7284638BD80
:1011C000F4F10110D0F1011038B50024254600E0FB
:1011D0000134094B1B68A3420BD904EB44030748B5
:1011E00000EB830000F012FC0028F1D06FF007053F
:1011F000EEE7284638BD00BFF8F10110FCF1011000
:10120000474885464748804780B94749474A484B41
:101210009B1A03DD043BC858D050FBDC4549464AC5
:1012200000209142BCBF41F8040BFAE743488047D5
:101230004348804743488047FFF7FEFFFEE7FEE74D
:10124000FEE7FEE7FEE7FEE7FEE7FEE7FEE7FEE776
:10125000FEE7FEE7FEE7FEE7FEE7FEE7FEE7FEE766
:10126000FEE7FEE7FEE7FEE7FEE7FEE7FEE7FEE756
:10127000FEE7FEE7FEE7FEE7FEE7FEE7FEE7FEE746
:10128000FEE7FEE7FEE7FEE7FEE7FEE7FEE7FEE736
:10129000FEE7FEE7FEE7FEE7FEE7FEE7FEE7FEE726
:1012A000FEE7FEE7FEE7FEE7FEE7FEE7FEE7FEE716
:1012B000FEE7FEE7FEE7FEE7FEE7FEE7FEE7FEE706
:1012C000FEE7FEE7FEE7FEE7FEE7FEE7FEE7FEE7F6
:1012D000FEE7FEE7FEE7FEE7FEE7FEE7FEE7FEE7E6
:1012E000FEE7FEE7FEE7FEE7FEE7FEE7FEE7FEE7D6
:1012F000FEE7FEE7FEE7FEE7FEE7FEE7FEE7FEE7C6
:10130000FEE7FEE7FEE7FEE7FEE7FEE7FEE7FEE7B5
:10131000FEE7FEE7FEE7FEE7FEE7FEE7FEE7FEE7A5
:10132000000002200914001048F8011000000020FD
:10133000C4090020000A00207C1800200D140010B1
:101340006D360010810C001008B503460B4A126878
:1013500042B10A4A10680344094A934206D8074A30
:10136000136008BD054A07491160F2E702F078F9F9
:101370000C2303604FF0FF30F3E700BFD8110020CB
:1013800000F00120801800206FF0100070476FF00F
:10139000100070474FF080439B6803F46063B3F51F
:1013A000206F1BD00AD8B3F5C06F1AD0B3F5006F09
:1013B00001D1114B09E0BBB9104B06E0B3F5406F0A
:1013C00014D0B3F5606F14D10D4B4FF0804292688A
:1013D000C2F38212D3400B4A136070474FF4E1030B
:1013E000F3E747F23053F0E7034BEEE74FF40043E7
:1013F000EBE7014BE9E700BF00E1F5050087930348
:10140000C06878047C1800200020704710B50A4C92
:101410000A4BA3600A4800F0E5FCD4F8883043F496
:101420007003C4F88830BFF34F8FBFF36F8FFFF79F
:10143000B1FFFFF7DFFD10BD00ED00E00000001080
:1014400000A0024038B54FF0E02318499C691A69A2
:1014500022F480320A601A69D20723D46FF07F44E5
:1014600005225C614FF080759C611A61104B114A36
:1014700019680023A0FB01010AF032FE0E4BB0FBFD
:10148000F5F205FB120084421A6007D81A6801328F
:101490001A602C44094B201A186038BD074B201ADB
:1014A000186038BD5D690135E0E700BFE01100203C
:1014B0007C18002040420F0004000020E4110020AE
:1014C00010B50C4C0C4B22681960002A0FDC08B9CF
:1014D000002010BDFFF7B6FF2368002BF8DD4FF0AA
:1014E000E0220020136943F00203136110BD6FF086
:1014F000050010BD04000020DC110020F8B5174CD9
:101500002368002B1EDB26682EBB154B4FF0E02511
:101510001B68AA699A421ED8124F3B685BB16FF0F4
:101520000F009847104B3E601A682A614FF0FF3356
:1015300023600020F8BD0C4A4FF0FF3312682A6187
:101540002360F6E7074C2368002BF2D00020984771
:1015500000202060F8BD6FF00500F8BD04000020F9
:10156000E4110020DC110020E011002010B5094C2E
:10157000236823B16FF00F00984700232360064AC9
:10158000064B10684FF0E0214FF0FF3208611A60FF
:1015900010BD00BFDC110020E0110020040000207D
:1015A00038B5184C2268002A29DC00B938BDFFF78D
:1015B00049FF4FF0E02202E01369DB031BD42368EC
:1015C000002BF9DC104B1A684FF0E0218B69934235
:1015D000FCD80E4D2B6823B16FF00F009847002305
:1015E0002B600B4B4FF0E022196811614FF0FF3375
:1015F0000020236038BD2368013B2360DFE76FF0E4
:10160000050038BD04000020E4110020DC1100209A
:10161000E0110020F8B50F4E0F4BB2689A42044615
:101620000D4600F1100707D018460C494FF4F07230
:1016300002F0F0FA0346B060002C43F8275008DBB4
:10164000074B6209012004F01F0400FA04F443F878
:101650002240F8BD00ED00E0001200200000001064
:1016600000E100E03F2809D90E4A4038D168C0B2F5
:10167000012303FA00F00843D06070471F284FF0A1
:10168000804208D92038916CC0B2012303FA00F0DF
:10169000084390647047516A012303FA00F008433D
:1016A00050627047000008403F280AD9104940386E
:1016B000CB68C0B2012202FA00F023EA0000C86041
:1016C00070471F284FF0804109D920388B6CC0B279
:1016D000012202FA00F023EA0000886470474B6A96
:1016E000012202FA00F023EA00004862704700BFBE
:1016F0000000084010B507280AD8DFE800F00C0900
:10170000092333475B04BDE81040364800F07EB93A
:101710006FF0020010BD4FF080440021A36843F435
:101720008023A3604FF47A70FFF7CAFE03E0FFF74F
:10173000E5FE063052D1A3685901F8D5FFF716FF30
:10174000002010BD00214FF47A70FFF7B9FE4FF072
:10175000804403E0FFF7D2FE06303FD1A3689A0031
:10176000ECD4F7E74FF080440021A36843F4002352
:10177000A3604FF47A70FFF7A3FE03E0FFF7BEFE0D
:1017800006302BD1A3681B01F8D5D7E74FF0804472
:101790000021A36843F48013A3604FF47A70FFF72D
:1017A0008FFE03E0FFF7AAFE063017D1A368D8002A
:1017B000C4D4F7E74FF080440021A36843F400331A
:1017C000A3604FF47A70FFF77BFE03E0FFF796FE0D
:1017D000063003D1A3689B01B0D4F7E76FF009008E
:1017E00010BD00BF50F2011038B54FF080439D6826
:1017F000072824D8DFE800F0262323333C4B5A0483
:101800005D4800F003F9C8B94FF08042936843F493
:101810006063936000214FF47A70FFF751FE4FF040
:10182000804403E0FFF76AFE06304ED1A3689B04B4
:10183000F8D5FFF79BFEFFF7ADFD002038BD6FF038
:10184000020038BD4FF08044A16811F4802146D0D9
:101850004FF08042936823F460639360DAE74FF0BF
:101860008042936823F4606343F4C0639360D1E7DC
:101870004FF08044A16811F4002169D04FF08042FC
:10188000936823F4606343F400639360C2E74FF00E
:101890008044A16811F4801147D04FF080429368D2
:1018A00023F4606343F420639360B3E74FF0804414
:1018B000A16811F4003125D04FF08042936823F4E1
:1018C000606343F440639360A4E7A36805F4606534
:1018D00023F460632B43A3606FF0090038BDA36855
:1018E00043F48023A3604FF47A70FFF7E9FD03E02F
:1018F000FFF704FE0630EFD1A3685801F8D5FFF7D3
:1019000035FEA5E7A36843F40033A3604FF47A7073
:10191000FFF7D6FD03E0FFF7F1FD0630DCD1A36849
:101920009A01F8D5FFF722FEC6E7A36843F48013B7
:10193000A3604FF47A70FFF7C3FD03E0FFF7DEFD0D
:101940000630C9D1A368D900F8D5FFF70FFEA4E788
:10195000A36843F40023A3604FF47A70FFF7B0FD4F
:1019600003E0FFF7CBFD0630B6D1A3681B01F8D525
:10197000FFF7FCFD82E700BF50F201103F280AD9B3
:101980004038114AC0B2012303FA00F09060936816
:101990001842FCD170471F280BD92038C0B2012350
:1019A0004FF0804203FA00F05064536C1842FCD1AF
:1019B000704701234FF0804203FA00F050605368F3
:1019C0001842FCD1704700BF00000840C10710B5A5
:1019D000044608D4A2070BD463070ED42046BDE802
:1019E000104001F0A1BD0020FFF75EFEA207F3D575
:1019F0000120FFF759FE6307F0D54020FFF754FEA2
:101A00002046BDE8104001F08FBD00BF70B5844B8B
:101A100005689D42044637D003F580539D4220D08F
:101A200003F5EE2303F580639D4200F088807D4836
:101A300085420CBF08200020FFF7C8FF794B2268C1
:101A40009A4215D06268217A284600F05BF9D0B935
:101A5000637A042B00F2E080DFE803F06456483933
:101A600018000220FFF7B2FF6E4B22689A42E9D1BC
:101A7000237A012B00F0C480022B00F0AE80002BF3
:101A80005FD06FF0100070BD0120D5E72B6E62684B
:101A900023EA02032B666B6E13436B66D5F8B830EE
:101AA00023EA0203C5F8B8305E4BA17A9D4243D0C9
:101AB000284600F00FF90028E5D1207A0028E2D06E
:101AC0006268E17A2846BDE8704000F051B92B6E9B
:101AD000626813432B666B6E23EA02036B66D5F8CC
:101AE000B83023EA0203C5F8B830DDE72B6E626830
:101AF00023EA02032B666B6E13436B66D5F8B8308E
:101B00001343C5F8B830CFE72B6E626813432B66DA
:101B10006B6E23EA02036B66D5F8B8301343C5F841
:101B2000B830C1E72B6E626823EA02032B666B6E46
:101B300023EA02036B66B7E70029BED1A1E70420C0
:101B40007AE76368384958001A010E6A00F002000B
:101B500002F02002024326EA02020A628A68C3F304
:101B60004003034322EA03038B60637A042B88D883
:101B7000DFE803F0261B031B030062682A49D30039
:101B8000086A03F0100302F00106334320EA03035E
:101B90000B6256019300086A03F0040306F0400646
:101BA000334320EA03030B627EE71F4962680E6A33
:101BB000D30002F0010003F0100330430343E7E7D2
:101BC0006268194893005101066A03F0040301F0AA
:101BD00040010B433343036266E7636812495800D0
:101BE0001A010E6A00F0020002F0200202433243A2
:101BF0000A628A68C3F34003034313438B60B4E76C
:101C00006368094958001A010E6A00F0020002F0E8
:101C1000200202433243A0E76FF0020070BD00BF14
:101C20000080004000060840006C0040094A9042D5
:101C300001D000F047B8084810B4046ACA0001F0A7
:101C40000101214302F0100319435DF8044B0162C6
:101C5000704700BF00060840006C00400A4A9042EE
:101C600001D000F031B810B4084C0B46C900206A0E
:101C700001F0100203F00101114320EA0101216289
:101C80005DF8044B704700BF00060840006C004040
:101C900001F05CBC034A904201D000F017B8024A40
:101CA000D16170470006084000680040034B98422D
:101CB00001D000F00DB8024BD8697047000608400B
:101CC00000680040C16170470162704781647047DD
:101CD000006C704769B1012907D1D0F8C0300021EC
:101CE0001A43C0F8C020084670476FF0020108464A
:101CF0007047D0F8C03023EA0202C0F8C02008467E
:101D0000704700BF0346006B104318635A600529F3
:101D10002AD8DFE801F00A12141B2203C3F8882036
:101D200000209A67DA669A6070475A615A6000200C
:101D30001A67DA67C3F8882070471A61F6E7C3F8B4
:101D400088200020DA671A679A607047C3F88820F5
:101D50000020DA67DA669A607047C3F888200020AE
:101D60009A671A679A6070476FF00200704700BF69
:101D7000032929D8DFE801F0280F021CD0F8B03081
:101D800023EA0203C0F8B030D0F8B4301A43C0F8E8
:101D9000B42000207047D0F8B0301343C0F8B03002
:101DA000D0F8B43023EA0202C0F8B4200020704713
:101DB000D0F8B0301343C0F8B030D0F8B4301A4384
:101DC000C0F8B42000207047D0F8B03023EA0203F6
:101DD000C0F8B030D0F8B43023EA0202C0F8B42022
:101DE0000020704700F000B8D0F80031012223F045
:101DF0000103C0F80031C0F80027D0F80031DA0341
:101E0000FBD5D0F8003143F00103C0F80031D0F821
:101E10000031DB03FBD57047074B08494FF0FF3219
:101E20005A60DA605A61DA611A630B6923F00403BD
:101E30000B6130BF704700BF0068004000ED00E05C
:101E4000F0B5B24B984283B004460D46164631D0E9
:101E500003F5805398421FD0AD4B984200F0E380C9
:101E600003F58053984200F0E28003F5DB2303F58D
:101E70008063984200F09E8003F58063984200F0F2
:101E8000DA80002900F00F81A249A3483122FFF730
:101E900093F84FF0FF3703E0002900F00481012799
:101EA000EB78023B042B00F22981DFE803F00C24DD
:101EB0001A080800002900F0F6800027F0E76FF00C
:101EC000100003B0F0BD0020FFF714FC934920463A
:101ED00000F054F90122032F29D8DFE807F0435717
:101EE0002F160620FFF706FC4FF40041204600F0B5
:101EF00045F90322EFE70520FFF7FCFB4FF4E10172
:101F0000204600F03BF90222E5E708200192FFF7A6
:101F100035FD1220FFF7C8FB019A46B1AB78022BC2
:101F200012BF7F487F480192FFF770FD019A294652
:101F3000204603B0BDE8F04000F012BA072001923D
:101F4000FFF71CFD1120FFF7AFFB019A002EEED02A
:101F5000AB78022B12BF744874480192FFF756FD0C
:101F6000019AE4E705200192FFF708FD0F20FFF733
:101F70009BFB019A002EDAD0AB78022B12BF6C4883
:101F80006C480192FFF742FD019AD0E706200192CA
:101F9000FFF7F4FC1020FFF787FB019A002EC6D054
:101FA000AB78022B12BF644864480192FFF72EFD04
:101FB000019ABCE7002976D0CB78023B042B00F2D3
:101FC000938001A252F823F0BF1E001013200010CE
:101FD00093200010DD1F0010BF1E00100320FFF72C
:101FE00089FB574847F2305100F0C8F802225548A3
:101FF0000192FFF70BFD4220FFF7C0FC4220FFF7E4
:1020000053FB019A2946204603B0BDE8F04000F09A
:10201000A7B90520FFF76EFB49484FF4E10100F036
:10202000ADF80022E3E700293DD0022738E7002978
:1020300039D0032734E7002935D0CB78023B042B75
:1020400048D801A252F823F0BF1E0010C120001092
:10205000BF1E0010AD2000105D2000100520FFF70E
:1020600049FB39484FF4612100F088F801223748D4
:102070000192FFF7CBFC4320FFF780FC4320FFF7E2
:1020800013FB019A2946204603B0BDE8F04000F05A
:1020900067B90620FFF72EFB29484FF4004100F0F6
:1020A0006DF80122A3E74FF0FF300AE70320FFF7A6
:1020B00021FB254847F2305100F060F80222D6E7B4
:1020C0000520FFF717FB20484FF4E10100F056F818
:1020D0000022CCE71E4B1C481968002249080192D7
:1020E00000F04CF8019AC2E7194B15481968002214
:1020F0004908019200F042F8019A78E7144B1968F8
:102100002046490800F03AF80022E4E600000140C9
:102110000020014004F3011048F3011000879303ED
:10212000A4F20110B0F201108CF2011098F201102B
:102130005CF2011068F2011074F2011080F20110DB
:10214000000C0840BCF2011000100840C8F2011059
:102150007C18002000F068B900F094B900F0BEB916
:1021600000F0E8B900F014BA01F034BA01F04ABA4C
:1021700001F03ABA01F03CBA00F07CBA1A4B98422E
:1021800010B50C4626D003F58053984219D003F5BC
:102190008053984222D003F58053984220D003F513
:1021A000DB2303F58063984216D003F580639842E1
:1021B00018D098220D490E48FEF7FEFE4FF0FF3270
:1021C00000E001220B4B03EBC201012003F83200B7
:1021D0004C6010BD0022F5E70422F3E70222F1E78C
:1021E0000322EFE70522EDE70000014054F3011060
:1021F00048F30110E013002008B51B4B984226D08D
:1022000003F58053984219D003F58053984222D0A9
:1022100003F58053984220D003F5DB2303F5806358
:10222000984216D003F58063984218D0A2220F4935
:102230000F48FEF7C1FE4FF0FF3200E001220D4BC8
:1022400013F8321069B103EBC203586808BD0022CD
:10225000F5E70422F3E70222F1E70322EFE7052284
:10226000EDE76FF0060008BD0000014054F30110D7
:1022700048F30110E0130020364B984270B5044635
:102280000D461AD003F58053984216D003F58053BB
:10229000984212D003F5805398420ED003F5DB2309
:1022A00003F58063984208D003F58063984204D018
:1022B00029492A48B022FEF77FFE002D3CD095F830
:1022C00002C02369BCF1020F0CBF4FF080414FF4F4
:1022D000804143EA01030BBF6FF0005E6FF4005EC4
:1022E0004FF080724FF4807223610BBF4FF4803641
:1022F00001264FF4002008200CBF10210021A36903
:102300000342FCD06B7820698B4003432361AB68A8
:1023100020691B028B40034323612660E36813425C
:10232000FCD06B6803FA01F16160A369BCF1020F94
:1023300003EA0E03A36100D070BDA36943F080736C
:10234000A361236943F000432361A3695B03FCD5C8
:1023500070BD00BF0000014054F3011048F30110AC
:102360002E4B984270B504460D4616461AD003F51A
:102370008053984216D003F58053984212D003F54B
:10238000805398420ED003F5DB2303F58063984217
:1023900008D003F58063984204D0214921483C22AB
:1023A000FEF70AFE002D34D0A878022826D010F0BF
:1023B000030329D11946A36943F00043A361E368ED
:1023C00043F00113E3602B7806FA01F28B40216998
:1023D0000B432361A3691A43A2616B78072B1BD8B7
:1023E000DFE803F0060604040406040402280DD006
:1023F00020462946FFF740FF002070BD1021A36949
:1024000023F00043A361DAE70021F8E76FF0100042
:1024100070BD4FF0FF3070BD002070BD0000014066
:1024200054F3011048F30110134B984210B50446C1
:102430001AD003F58053984216D003F58053984282
:1024400012D003F5805398420ED003F5DB2303F539
:102450008063984208D003F58063984204D007490E
:102460000748E522FEF7A8FD236943F400432361F2
:10247000A3695B07FCD510BD0000014054F30110B7
:1024800048F30110124B984210B504461AD003F5D8
:102490008053984216D003F58053984212D003F52A
:1024A000805398420ED003F5DB2303F580639842F6
:1024B00008D003F58063984204D006490648EF220D
:1024C000FEF77AFD236923F40043236110BD00BFAA
:1024D0000000014054F3011048F30110124B9842E0
:1024E00010B504461BD003F58053984217D003F56E
:1024F0008053984213D003F5805398420FD003F5D0
:10250000DB2303F58063984209D003F5806398428A
:1025100005D0064906484FF49D72FEF74DFDE3686D
:1025200043F00113E36010BD0000014054F30110BB
:1025300048F3011038B5134B984204460D461BD0A2
:1025400003F58053984217D003F58053984213D077
:1025500003F5805398420FD003F5DB2303F5806326
:10256000984209D003F58063984205D00649074890
:1025700040F28312FEF720FD2560E368DB05FCD501
:1025800038BD00BF0000014054F3011048F30110B2
:1025900070B5324B984284B004460D461BD003F50B
:1025A0008053984217D003F58053984213D003F517
:1025B000805398420FD003F5DB2303F580639842E4
:1025C00009D003F58063984205D0254925484FF48A
:1025D000C872FEF7F1FC002D3BD02349234A0E6858
:1025E0007608A6FB055600232846314609F078FDFB
:1025F0001F4A03464FF0FF30A842B2412BD20022BF
:1026000015465B0843EAC17398424FEA510175EBE6
:10261000010602F10102F4D31201D1B200252046D5
:10262000CDE902358DF804108DF80550ADF806504F
:10263000FFF792FD2A4601A92046FFF701FCA36996
:1026400043F000432046A361FFF788FD2046FFF7D3
:1026500081FD04B070BD0021E0E700BF0000014033
:1026600054F3011048F301107C18002040420F0081
:102670003F420F002DE9F84F4A4DA84204460E464E
:10268000924699461AD0484B984217D003F580538A
:10269000984213D003F5805398420FD003F5DB2303
:1026A00003F58063984209D003F58063984205D012
:1026B0003E493F484FF4DC72FEF77EFC2046256918
:1026C000FFF79AFD071E4BDBC5F30318012303FA3E
:1026D00008F84FEAE873A8FB068106FB03167401AD
:1026E0004FEA4815B5EB080544EAD86464EB0604E4
:1026F000A40044EA9574AD0015EB08052D4A46EB9D
:10270000040482FB0732E4004FEAE77B44EA557495
:10271000CBEBA242ED00D3172846214609F0E0FC9E
:1027200009B3254A82FB0732CBEBA212D317284606
:10273000214609F0D5FCF1B1284621463A465B46D0
:1027400009F0CEFC09B33A465B464046314609F0F3
:10275000C7FC19BB0323CAF800000F4689F80030F4
:102760003846BDE8F88FCAF800000F4689F8001017
:102770003846BDE8F88F4FF00103CAF800000F4655
:1027800089F800303846BDE8F88F0223CAF8000007
:102790000F4689F800303846BDE8F88F6FF0030720
:1027A000DEE700BF000001400010014054F30110BB
:1027B00048F3011083DE1B43D34D621000F048BD87
:1027C00000F07EBD08B5174B984210D0164B9842CA
:1027D00015D0164B98421AD0154B98421FD1442061
:1027E000FFF7CCF84420FEF73DFF002008BD0B208A
:1027F000FFF7C4F80920FEF735FF002008BD0C20C4
:10280000FFF7BCF80A20FEF72DFF002008BD1C20B2
:10281000FFF7B4F82120FEF725FF002008BD6FF078
:10282000020008BD00200440003004400040044085
:102830000014084070B504460E461546FFF7C2FF67
:10284000A8BB022D2DD0042D18D0204B9C421BD0AC
:102850001F4B9C422CD01F4B9C4230D01E4B9C42A5
:1028600023D11E48FFF7D2F84420FEF71DFF2A4669
:1028700031462046BDE8704000F00EB90620FEF754
:1028800039FF124B9C42E3D11548FFF7BFF80920EE
:10289000FEF70AFF2A4631462046BDE8704000F0A8
:1028A000FBB80520FEF726FFCFE76FF0020070BDF2
:1028B0000C48FFF7ABF80A20FEF7F6FED7E70A4808
:1028C000FFF7A4F82120FEF7EFFED0E70020044038
:1028D000003004400040044000140840F8F20110A9
:1028E000D4F20110E0F20110ECF20110304B9842EA
:1028F00010B5044616D003F58053984212D003F564
:10290000805398420ED003F57533984207D10523C2
:10291000022A436143D0042A13D0002A3FD06FF02B
:10292000020010BD042AFAD0204600F0EDF800287D
:10293000F7DD236843F40043236023681B03FCD5C1
:1029400010BD02684FF480331A4302600068B3FB85
:10295000F1F340F40010B1F5166F206001FB03F2B3
:102960008CBF00200120C2F580326061ABB1B2EBB8
:10297000510F12D80F4A1361106800F44030B0F5BF
:10298000803F05D0136813F4403FC8D14FF4E100F5
:10299000084B1B69B0FBF3F0C9E70133EAE74FF4DA
:1029A000E103B3FBF1F301FB03F2C2F5E102DDE762
:1029B0000020044000140840124B98421CD003F53C
:1029C0008053984218D003F58053984214D003F5F1
:1029D0007533984212D1036803F44033B3F5803F56
:1029E00005D0036813F4403F08D14FF4E103064AD1
:1029F0001069B3FBF0F0704700F0D4B86FF002003C
:102A0000704700BF002004400014084000F008B9DF
:102A100000F026B900F04AB900F0A2B900F0BCB944
:102A200000F020B800F02AB800F0D4B900F0E8B9FE
:102A300000F0EAB900F0FEB900F002BA00F01EBAE8
:102A400000F03ABA00F058BA00F05ABA00F05ABA98
:102A500000F070BA00F088BA00F0A2BA00F0A2BA92
:102A600000F04ABC10B504462046FFF7DFFF0028FF
:102A7000FAD02046BDE81040FFF7CEBF38B5044677
:102A80000D462046FFF7D6FF0028FAD029462046FB
:102A9000BDE83840FFF7C2BF1A4B984270B50446F4
:102AA0000D4616460BD003F58053984207D003F528
:102AB0008053984203D003F5753398421FD101210A
:102AC0002046FFF7BDFF00B170BD08212046FFF78B
:102AD0009DFF0028F8D101462046FFF79BFF002804
:102AE000F2D101462046FFF793FF0028ECD1324691
:102AF00029462046FFF7FAFE00EAE07070BD6FF04D
:102B0000020070BD00200440234B98420BD003F517
:102B10008053984207D003F58053984203D003F5C1
:102B20007533984234D10523012A10B4436125D06E
:102B3000022A16D022B16FF002005DF8044B7047F4
:102B4000164B1A685208B2FBF1F301FB132213B1C2
:102B5000B2EB510F00D901335DF8044B0361FFF76D
:102B60002BBF04684FF4E10344F40034B3FBF1F3EA
:102B700001FB03F2C2F5E1020460E8E70468084AD9
:102B8000B2FBF1F344F48034046001FB1322DEE76E
:102B90006FF00200704700BF002004407C18002046
:102BA000C06878041B4B98420BD003F580539842C1
:102BB00007D003F58053984203D003F5753398424C
:102BC00025D1036803F44033B3F5803F14D0036884
:102BD00013F4403F06D1104B00691B685B08B3FB40
:102BE000F0F07047036803F44033B3F5003F08D0BA
:102BF00003686FF002007047084B0069B3FBF0F008
:102C0000704700694FF4E103B3FBF0F070476FF0D9
:102C100002007047002004407C180020C06878043F
:102C20000E4A904203460BD002F58052904207D0E4
:102C300002F58052904203D002F5753290420AD1DB
:102C40000539032907D81A6822F4406242EA812133
:102C50000020196070476FF00200704700200440A8
:102C6000114B98420BD003F58053984207D003F5DF
:102C70008053984203D003F57533984202D161B175
:102C8000012903D06FF00201084670470368002154
:102C900043F48053036008467047036823F480536D
:102CA00003600846704700BF002004402B4A904252
:102CB00003460BD002F58052904207D002F58052B5
:102CC000904203D002F57532904244D1042942D893
:102CD000DFE801F01117253303001A6842F01002F3
:102CE0001A601A6842F020021A601A6842F0400224
:102CF00000201A6070471A6822F0100200201A6043
:102D000070471A6842F010021A601A6822F0200216
:102D10001A601A6822F0400200201A6070471A6890
:102D200042F010021A601A6822F020021A601A6833
:102D300042F0400200201A6070471A6842F0100208
:102D40001A601A6842F020021A601A6822F04002E3
:102D500000201A6070476FF00200704700200440A6
:102D60000C4B98420BD003F58053984207D003F5E3
:102D70008053984203D003F57533984204D14368D9
:102D8000DB0604D4006A70476FF0020070476FF0F2
:102D90000C007047002004400D4B98420BD003F507
:102DA0008053984207D003F58053984203D003F52F
:102DB0007533984206D1436813F0800305D1016250
:102DC000184670476FF0020070476FF00B007047B5
:102DD000002004408AB110B40139002305E001331A
:102DE000046A01F8014F9A4203D04468E406F6D51C
:102DF0001A4610465DF8044B70471046704700BFF6
:102E00004068C0F3032070478AB110B40139002331
:102E100005E0013311F8014F04629A4203D044687F
:102E20002406F6D51A4610465DF8044B7047104646
:102E3000704700BF4068C0F30330C0F1080070471E
:102E40000D4B98420BD003F58053984207D003F501
:102E50008053984203D003F57533984208D1036834
:102E600043F4C06303604368DB06FCD50020704771
:102E70006FF00200704700BF002004400D4B9842E5
:102E80000BD003F58053984207D003F58053984246
:102E900003D003F57533984209D1036843F4807376
:102EA0000360036813F48073FBD1184670476FF01A
:102EB00002007047002004400E4A904203460BD0A7
:102EC00002F58052904207D002F58052904203D022
:102ED00002F57532904209D14A1E072A06D81A68AF
:102EE00022F00F0211430020196070476FF00200BA
:102EF000704700BF00200440006800F00F007047DA
:102F0000C06870470A4B98420BD003F58053984233
:102F100007D003F58053984203D003F575339842E8
:102F200002D1C160002070476FF00200704700BFFF
:102F3000002004400B4A904203460BD002F5805219
:102F4000904207D002F58052904203D002F57532CC
:102F5000904204D19A6811430020996070476FF045
:102F600002007047002004400C4A904203460BD0F8
:102F700002F58052904207D002F58052904203D071
:102F800002F57532904205D19A6822EA01010020CB
:102F9000996070476FF00200704700BF0020044046
:102FA00040687047F8B5794B04460068984200F0D5
:102FB000B58003F5805398425BD003F58053984267
:102FC00000F0B28003F57533984240F0CE800325BF
:102FD0006F4F704E57F82530002B51D056F82530E2
:102FE0001BB12369002B40F0B980E368002B40F04F
:102FF000B580C4E905332069002839D0A368002BC7
:1030000000F0B9802068614B984200F08F8003F592
:103010008053984200F08C8003F58053984200F072
:10302000818003F5753398420CBF03234FF0FF33C3
:103030000B2146F82340FFF70BFD10212068FFF716
:1030400007FD2068FFF7F2FCA1692369A5685A1AF9
:10305000824228BF024629442068FFF7E5FCA369A5
:10306000024613442068A3611021FFF7EFFC002003
:10307000F8BD474F474E012557F82530002BADD1FD
:1030800056F82530002B57D02369002B66D1E26813
:103090000023C4E90533002AADD06268002A67D056
:1030A00020683A4A90420DD03B4B984242D003F5FB
:1030B0008053984234D003F5753398420CBF0323F4
:1030C0004FF0FF33402147F82340FFF7C1FC206851
:1030D000FFF7B0FC6169E3685A1A6368824228BF4F
:1030E000024619442068FFF7A3FC63690344636147
:1030F0002068FFF79FFC03287FF67DAF6269E368D5
:103100009A427FF478AF15B3012D2AD0022D0BBF60
:1031100004224FF08072012502251AE0002557E7AE
:103120000223CFE7022383E7022551E700237FE74D
:1031300001237DE70123C5E74FF0FF31FFF78AFC4C
:1031400020684FF0FF31FFF781FCE268A0E74FF401
:103150008042124B403543F825204CE76FF00500C4
:10316000F8BD4FF400420025F3E76FF00300F8BD0F
:103170006FF00200F8BD4FF0FF312068FFF76AFCE6
:103180002068FFF75BFC6FF00200F8BD00200440F0
:1031900020140020101400200030044000E100E062
:1031A00038B5134B98421AD003F58053984214D087
:1031B00003F58053984216D003F57533984214D125
:1031C00003220C4B53F8220030B1C5694DB10024E5
:1031D00043F82240A847204638BD0122F1E70022EB
:1031E000EFE7284638BD0222EBE76FF0020038BD5A
:1031F000002004402014002038B5134B98421AD008
:1032000003F58053984214D003F58053984216D0AA
:1032100003F57533984214D103220C4B53F8220066
:1032200030B1C5694DB1002443F82240A84720467B
:1032300038BD0122F1E70022EFE7284638BD02221F
:10324000EBE76FF0020038BD0020044010140020AE
:1032500030B5184B984283B0044626D003F580530E
:1032600098421ED003F5805398421CD003F5753365
:1032700098421CD1032520460191FFF791FF0E4A89
:103280000E4B52F8252053F825309A4206D001996A
:103290002046FFF7B1FF002003B030BD002003B08F
:1032A00030BD0125E7E70225E5E70025E3E76FF0FC
:1032B0000200F1E700200440101400202014002038
:1032C00008B50C4B98420BD003F58053984207D0B9
:1032D00003F58053984203D003F57533984205D126
:1032E0004FF0FF31FFF7B6FB002008BD6FF0020082
:1032F00008BD00BF00200440884B98422DE9F047EC
:10330000054600F0C18003F58053984276D003F55E
:103310008053984200F0998003F57533984240F04D
:10332000E8804FF00308DFF8F8912846FFF78CFBA0
:1033300059F8286004461EB3AB68034013F00B0F26
:1033400040F0DA80F368002B5BD1DFF8D8A15AF89F
:1033500028706FB1E30623D45AF8282059F8286062
:10336000964200F0948091691269914273D026B11F
:103370007269F3689A4200F09D800020BDE8F087F2
:10338000DFF8A0A15AF82870002F00F0C080AB68C9
:10339000034013F00B0F40F0AF8010F0100357D034
:1033A0003B69002BD8D03868FFF740FBBB693A690E
:1033B000B968D31A834238BFB869BB6938BF101ADD
:1033C000024619443868FFF72FFBBB691844B861FF
:1033D000BC693B6938681C1BFFF734FB8442C0F0B2
:1033E000818038681021FFF731FB5AF8282059F8FE
:1033F0002860B2424BD0002AB5D1B8E74FF001089F
:1034000091E73068DFF81CA1FFF714FB7369F268DD
:103410007168D31A834238BF7069736938BF101A54
:10342000024619443068FFF703FB73691844706162
:1034300040213068FFF70AFB5AF82870002F89D125
:1034400059F82860002E98D092E74FF002086AE7FA
:103450003A461E4687E7314B9D420BD003F5805319
:103460009D4207D003F580539D4203D003F5753389
:103470009D4203D10B212846FFF7ECFA0021284694
:10348000FFF7BAFE002079E74FF000084BE7BA6972
:103490003B699A427FF471AF7A69FB689A427FF484
:1034A0006CAF2846FFF78CF900212846FFF786F914
:1034B000002063E7194B9D420BD003F580539D42DA
:1034C00007D003F580539D4203D003F575339D4229
:1034D00003D140212846FFF7BDFA00212846FFF717
:1034E0005FFE4AE7BB6939693868C91AFFF7A8FA6D
:1034F00077E76FF0030041E72846FFF761F96FF0C7
:1035000008012846FFF75AF96FF0030036E7E9682B
:103510002846FFF79BFA6FF003002FE700200440D6
:10352000201400201014002010B5064C217831B969
:1035300005484FF4007200F007FC012323700020BF
:1035400010BD00BF3018002030140020032870B5D3
:10355000054625D8E0B9174E3046FEF7A7FB0446CE
:1035600001463046FEF796FB8CB1134E134B06EB2B
:10357000C51603EBC515E30703D52B680BB13068FF
:103580009847640806F1040605F10405F3D170BDFF
:1035900001280CD00A4E0B4B022818BF1E46DBE751
:1035A00009490A485A22FDF707FD0026D4E7084ECC
:1035B000D2E700BF00800040301600203014002009
:1035C000000408400006084098F30110E0F30110E1
:1035D0000090004010B50446FEF7BEFD20460021D5
:1035E000BDE81040FEF7BCBD4FF0FF31FEF7BABD9D
:1035F00038B50546FEF7BAFD04462846FEF7B4FD89
:10360000204638BD00B583B00DF10303016801AA5F
:10361000FEF7B2FD9DF803300198022B0AD0032B70
:103620000FD0012B03D00A4BA3FB0030800903B05D
:103630005DF804FB4FF47A7303FB00F003B05DF810
:1036400004FB044B03FB00F003B05DF804FB00BF78
:10365000D34D621040420F000A22002100F03CBD11
:10366000014B1868704700BF0800002070B50D4E70
:103670000D4D761BB61006D0002455F8043B0134DE
:103680009847A642F9D1094E094D761B1CF0C6F8A1
:10369000B61006D0002455F8043B01349847A642E2
:1036A000F9D170BDB8090020B8090020C009002078
:1036B000B80900202DE9F04F01F10B06162E83B05A
:1036C000044624D8102900F2BA8000F08FFB10269F
:1036D00018220220B54F3A44A2F1080153688B42E8
:1036E00000F0BA805A68D96822F003021A449D6833
:1036F000E9608D60516841F001012046516003F19D
:10370000080500F079FB284603B0BDE8F08F36F0DD
:10371000070600F19480B14200F2918000F066FB50
:10372000B6F5FC7FC0F09A81730A00F08F80042BFD
:1037300000F26F81B30903F1390003F1380CC300C3
:103740009A4F3B44A3F108055B689D4206D10CE00B
:10375000002980F22781DB689D4206D05A6822F05A
:103760000302911B0F29F3DD60463D69DFF850C26B
:1037700065457CD06A6822F00302931B0F2B00F38F
:103780007B81002BC7E904CC80F26C81B2F5007F0D
:1037900080F01A81D308796801334FEA521E012262
:1037A00002FA0EF20A4357F833E0C5F808E007EBD7
:1037B000C3010839E9607A6047F83350CEF80C50FD
:1037C000831001219940914257D8114206D120F02F
:1037D00003004900114200F10400FAD007EBC009D0
:1037E0004D468646D5F80C80454508D11DE1002B95
:1037F00080F22481D8F80C80454500F01681D8F875
:10380000042022F00302931B0F2BF0DD2046D8E9A1
:10381000025408EB060146F00106C8F80460EC60AB
:10382000A56043F00104C7E90411C1E902CC4C6072
:1038300048F8023000F0E0FA08F1080502E00C2335
:1038400023600025284603B0BDE8F08F4FF40073D5
:1038500040204FF03F0C73E7D3689A4208BF023014
:103860007FF440AF3D69DFF858C1654582D17A6881
:103870008310012199409142A7D9BD686B6823F05C
:1038800003094E4503D8A9EB06030F2B7ADCDFF8BA
:1038900034B1474BDBF800201B680132334405EBA1
:1038A000090A00F0338103F580530F3323F47F6856
:1038B00028F00F084146204600F0B8FA411C0246A5
:1038C00000F0F380824500F2EE803A4B19684144E3
:1038D0001960084600F04E81DBF8001001930131B9
:1038E0001BBFA2EB0A0A5044CBF80020186012F06C
:1038F000070B00F01781CBF108010A44CBF580518A
:1039000090440831A1EB0801C1F30B0A514620464F
:10391000009200F08BFA421CDDE9002300F04F8199
:10392000801A00EB0A081968BA6048F00100514497
:10393000BD425060196000F02981B9F10F0F40F2CB
:1039400027816868A9F10C0C2CF0070C00F001002D
:1039500040EA0C0068604FF0050E05EB0C00BCF16E
:103960000F0FC0E901EE00F2328150681546124B8C
:103970001A688A4238BF1960104B1A688A4238BFE9
:10398000196094E0AA1943F0010346F001066E6045
:103990002046BA60536000F02FFA0835284603B07D
:1039A000BDE8F08FD9681A44A1E600BF38040020B2
:1039B00064180020341800205C18002060180020D3
:1039C0004004002040080020B2F5206F4FEA522347
:1039D00063D3142B00F2B78003F15C01C9005B33A1
:1039E00007EB010E7958AEF1080E8E4500F091807C
:1039F0004B6823F00303934202D989688E45F7D1BF
:103A0000D1F80CE07A68C5E9021ECEF80850CD6006
:103A1000D6E6142B59D9542B00F29D80330B03F1B9
:103A20006F0003F16E0CC3008AE60EF1010E1EF06A
:103A3000030F05F108057FF4D5AE51E04244454639
:103A40005368D8F80C1043F00103536055F8083F51
:103A50002046D9608B6000F0CFF9F3E6F00806F15C
:103A6000080237E62A442046536843F001035360B6
:103A7000083500F0C1F9E5E6A919204646F001062F
:103A800043F001046E60C7E90411C1E902CC4C6047
:103A9000AB5000F0B1F90835D4E6930903F13901D0
:103AA000C90038339CE7BD425FD0BD68686820F02C
:103AB00003084645A8EB060302D80F2B3FF762AF79
:103AC000204600F099F90025BCE603F15C0003F103
:103AD0005B0CC30034E659F808394B4540F096803A
:103AE00010F0030F00F1FF30F5D17B6823EA0103EA
:103AF0007B60490099423FF6C0AE19B9BDE6490066
:103B00000EF1040E1942FAD0704667E603F1100870
:103B1000D0E69A104FF001087B6808FA02F21A43C7
:103B20007A6070E702EB08014942C1F30B0A514683
:103B30002046009200F07AF9431CDDE900237FF46F
:103B4000EFAEDA46EFE6542B25D8130B03F16F01E5
:103B5000C9006E3344E7B3F5AA7F25D8F30B03F110
:103B6000780003F1770CC300EAE5294B186840445C
:103B70001860B1E6CAF30B0CBCF1000F7FF4ACAED9
:103B8000BD68C84448F001006860F0E61546EEE6FE
:103B90000123536094E7B3F5AA7F23D8D30B03F135
:103BA0007801C90077331BE740F25452934223D87F
:103BB000B30C03F17D0003F17C0CC300C0E5ABF155
:103BC000080BD844A8EB02084FF0000AABE605F159
:103BD00008012046009305F0A5F8BD68009B6868C1
:103BE0001968C4E640F254518B420BD8930C03F190
:103BF0007D01C9007C33F3E64FF47E737F204FF0E4
:103C00007E0C9DE54FF47E717E23E9E67B6870E7CC
:103C100034180020844641EA000313F003036DD1F9
:103C2000403A41D351F8043B40F8043B51F8043B7F
:103C300040F8043B51F8043B40F8043B51F8043B86
:103C400040F8043B51F8043B40F8043B51F8043B76
:103C500040F8043B51F8043B40F8043B51F8043B66
:103C600040F8043B51F8043B40F8043B51F8043B56
:103C700040F8043B51F8043B40F8043B51F8043B46
:103C800040F8043B51F8043B40F8043B51F8043B36
:103C900040F8043B51F8043B40F8043B51F8043B26
:103CA00040F8043B403ABDD2303211D351F8043BC6
:103CB00040F8043B51F8043B40F8043B51F8043B06
:103CC00040F8043B51F8043B40F8043B103AEDD275
:103CD0000C3205D351F8043B40F8043B043AF9D2C6
:103CE000043208D0D2071CBF11F8013B00F8013B99
:103CF00001D30B8803806046704700BF082A13D3A6
:103D00008B078DD010F003038AD0C3F10403D21ABD
:103D1000DB071CBF11F8013B00F8013B80D331F8F1
:103D2000023B20F8023B7BE7043AD9D3013A11F871
:103D3000013B00F8013BF9D20B7803704B784370DC
:103D40008B78837060467047830730B548D0541E27
:103D5000002A3FD0CAB2034601E0013C3AD303F83F
:103D6000012B9D07F9D1032C2DD9CDB245EA0525AC
:103D70000F2C45EA054536D9A4F1100222F00F0CAC
:103D800003F1200EE6444FEA121C03F1100242E94F
:103D9000045542E9025510327245F8D10CF1010286
:103DA00014F00C0F03EB021204F00F0C13D0ACF163
:103DB000040323F003030433134442F8045B9342E7
:103DC000FBD10CF003042CB1CAB21C4403F8012B44
:103DD0009C42FBD130BD64461346002CF4D1F9E778
:103DE00003461446BFE71A46A446E0E7014805F03B
:103DF00043BA00BF6C180020014805F03FBA00BF6D
:103E00006C1800200FB400B5074983B004AB0868F4
:103E100053F8042B8168019301F0DAFE03B05DF8DA
:103E200004EB04B0704700BF0800002038B5074D10
:103E30000022044608462A60FDF786FA431C00D09B
:103E400038BD2B68002BFBD0236038BD78180020CC
:103E50000000000000000000000000000000000062
:103E60000000000000000000000000000000000052
:103E70000000000000000000000000000000000042
:103E800090F800F06DE9024520F007016FF0000C9A
:103E900010F0070491F820F040F049804FF0000442
:103EA0006FF00700D1E9002391F840F000F108001D
:103EB00082FA4CF2A4FA8CF283FA4CF3A2FA8CF355
:103EC0004BBBD1E9022382FA4CF200F10800A4FABC
:103ED0008CF283FA4CF3A2FA8CF3E3B9D1E9042310
:103EE00082FA4CF200F10800A4FA8CF283FA4CF347
:103EF000A2FA8CF37BB9D1E9062301F1200182FA01
:103F00004CF200F10800A4FA8CF283FA4CF3A2FA06
:103F10008CF3002BC6D0002A04BF04301A4612BA14
:103F2000B2FA82F2FDE8024500EBD2007047D1E917
:103F3000002304F00305C4F100004FEAC50514F0A6
:103F4000040F91F840F00CFA05F562EA05021CBF77
:103F500063EA050362464FF00004A9E7830730B423
:103F600027D10468A4F1013323EA040313F0803F4E
:103F7000034608D153F8045FA5F1013424EA05048F
:103F800014F0803FF6D01C781CB113F8014F002CC0
:103F9000FBD1013903EB020C9C4508D011F8012F2D
:103FA00003F8012B1AB16345F6D100221A7030BC18
:103FB00070470346E7E700BF2DE9F04F81464548CB
:103FC0008E4675461EF801CB10F80C4014F008041C
:103FD000F7D1BCF12D0FE34654D0BCF12B0F08BF35
:103FE0009EF800B06FF0004808BF05F1020E1BB14B
:103FF000102B4FD01F4604E0BBF1300F55D00A23E1
:104000001F460025B8FBF7F6284607FB168A07E08F
:10401000864215D329D007FB00C001251EF801BB3D
:10402000ABF1300CBCF1090F06D9ABF1410CBCF17E
:10403000190F08D8ABF1370C63450DDD002DE7DA19
:104040004FF0FF35EAE7ABF1610CBCF1190F03D873
:10405000ABF1570C6345F1DC002D0BDB04B14042A2
:104060000AB195BB1160BDE8F08FE245D3DA4FF09D
:10407000FF35D3E72223C9F800301AB30EF1FF3120
:104080004046EFE79EF800B04FF0004805F1020E01
:104090000124ACE7BBF1300FACD19EF8000000F07A
:1040A000DF00582807D01F46ABE79EF8003003F02A
:1040B000DF03582B0BD110279EF801B03B460EF1C1
:1040C000020E9EE74046BDE8F08F8046D6E7082303
:1040D0001F4696E789F40110012A09D0242A07D83F
:1040E00084460748134600680A466146FFF764BFE6
:1040F00010B5FFF7B5FA16230360002010BD00BF0E
:1041000008000020000000002DE9F04F2DED0A8B83
:10411000D3B00C46914609EE101A0D9309EE900AA1
:1041200005F0A2F8036817931846FFF7A9FEA389C4
:1041300016901A0603D52369002B00F0A1874D467F
:104140009FEDA57B2B78002429AACDE92744CDE952
:104150001944CDE91B448DED147B19EE909A12940D
:104160002692904618940994002B00F0EC81AB46FF
:1041700004E01BF8013F002B00F01A81252BF8D139
:10418000BBEB050640F018819BF80030002B00F0D7
:10419000DA8100234FF0FF329BF801708DF87B30FD
:1041A0000A930BF1010B08929A462B2420210BF164
:1041B000010BA7F120035A2B00F23C81DFE813F03A
:1041C000D5023A013A01D0023A013A013A016A00B5
:1041D0003A013A016502FE023A017002E4023A0134
:1041E000DF025B005B005B005B005B005B005B0071
:1041F0005B005B003A013A013A013A013A013A01A7
:104200003A01D2013A0136028500D201D201D2012F
:104210003A013A013A013A01CB023A013A01C600A9
:104220003A013A013A0140023A0175023A013A0173
:1042300050073A013A013A013A013A013A013A018A
:104240003A01D2013A0136028700D201D201D201ED
:10425000BE02870080003A01B1023A019902C8000B
:10426000870280003A0140027D002B073A013A01A3
:104270002F073A017D00A7F1300300221BF8017BD4
:1042800002EB820203EB4202A7F13003092BF5D9BE
:104290000A928EE7484604F0E7FF43681B931846EE
:1042A000FFF7EEFD1C900646484604F0DDFF8368EC
:1042B00019932021002E40F0C2859BF8007076E70C
:1042C0009BF800704AF0200A71E74AF0100A1AF0D1
:1042D000200F0D9B00F09A81073323F007031A4645
:1042E0005B6852F8084B0D921E46002BC0F26B859E
:1042F000089B013301F03A802AF08003079354EAC7
:10430000060300F0E7840A2C76F1000380F0918721
:1043100030340123DDF81CA08DF847410B930DF2DA
:10432000471508990B989DF87B3081424FF00002A9
:10433000B8BF01460C920791109213921192002B74
:1043400000F08980079A0132079284E04AF0100A4F
:104350001AF0200600F04B810D9B073323F0070372
:104360005E6853F8084B0D932AF48063079300238B
:1043700000228DF87B20089A551C00F026820799B0
:1043800021F0800A54EA060140F01D82002A41F023
:104390002980002B40F0A484079B13F001030B93AA
:1043A00000F0428530238DF847310DF24715B8E70C
:1043B000BBEB050600F0C780289B33442893279B5E
:1043C0000133072BC8E90056279309DC08F10808D8
:1043D000099B33440993D7E6000000000000000069
:1043E00019EE101A26AA484605F0D4FE90B90DF130
:1043F000A408EDE719EE101A26AA484605F0CAFEF1
:10440000002800F091800C9B23B10C9919EE900AC2
:1044100004F088FC19EE103A9B8913F0400F099BB9
:1044200018BF4FF0FF330993099853B0BDEC0A8BC6
:10443000BDE8F08F002F00F0868000238DF8E47037
:104440008DF87B300122CDE90B230792089310935E
:104450001393119339AD1AF002020E9202D0079A0B
:10446000023207921AF084020F9205D10A9A079934
:10447000561A002E00F30D83289C8BB1279B0DF15B
:104480007B0201330134C8F80020072B4FF00102F2
:1044900028942793C8F8042000F3338308F1080810
:1044A0000E9B83B1279B1FAA01330234C8F800205A
:1044B000072B4FF0020228942793C8F8042000F33A
:1044C0002D8308F108080F9B802B00F00F82089BBA
:1044D0000B9A9E1A002E00F350821AF4807F40F04F
:1044E000AB810B9BC8F804301C44279BC8F80050D4
:1044F0000133072B2894279300F3BE8208F10808A4
:104500001AF0040F05D00A9B079A9D1A002D00F39C
:104510001283DDE9093207998A42ACBF9B185B1808
:104520000993002C7FF466AF002327930C9B1BB1EB
:104530000C99484604F0F6FB0DF1A4085D462B7873
:10454000002B7FF414AE289B002B3FF463AF19EED1
:10455000104A19EE101A19EE900A26AA05F01AFE52
:10456000A3895AE70D9B073323F00703B3EC027BC3
:104570008DED147BDDE914120D9322F000430AEE59
:10458000101A0AEE903A4FF0FF32B0EE4A8AF0EE7F
:104590006A8AA54B51EC180B07F064FD002840F027
:1045A0006784A14B51EC180B4FF0FF3207F03CFD34
:1045B000002840F05D84DDE914010022002307F0AB
:1045C00029FD002840F0A5879DF87B30974D984A3B
:1045D0002AF0800A0321472FC8BF154600220C92FB
:1045E00007910B910892109213921192A7E61AF07C
:1045F000100340F033841AF0400200F05B870D9AFC
:1046000052F8044B0D921E46A4B2ADE653F8044B8B
:104610000D931AF0100F40F00E841AF0400F00F0C6
:10462000068444F3C036334624B25EE60D9A002376
:1046300052F8041B8DF87B308DF8E4100D9201E7E1
:104640000D9C54F8045B00268DF87B60002D00F073
:10465000D986089B5A1C00F047851A4631462846E1
:1046600004F07EFE0C90002801F07B800C9B0896E5
:10467000591B0B9121EAE1719DF87B300D94079154
:104680000C9610961396119659E60D9B53F8042B31
:104690000A92002A80F2C3830A9A0D9352420A9228
:1046A0009BF800704AF0040A81E54AF01003079372
:1046B000079B13F0200600F073830D9B073323F054
:1046C00007035E6853F8084B0D93012350E60D9BDA
:1046D00053F8044B0D9330234AF0020278278DF8EB
:1046E0007C30544B189307928DF87D70002602237E
:1046F0003EE61AF0200F40F083841AF0100F40F0CD
:1047000078861AF0400F40F04C871AF4007F00F0D2
:1047100070860D9B099953F8042B0D9311705D461B
:104720000DE79BF800706C2F03BF9BF801704AF0F7
:10473000200A0BF1010B4AF0100A38E59BF80070D3
:10474000682F03BF9BF801704AF4007A0BF1010B4C
:104750004AF0400A2BE59BF800704AF0080A26E56B
:104760009BF800704AF0010A21E59DF87B30002B90
:104770007FF4A3AD9BF800708DF87B1017E59BF8D4
:1047800000704AF0800A12E55A4612F8017B2A2F7F
:1047900001F0F081A7F13003092B934698BF002266
:1047A00000F2F5871BF8017B02EB820203EB420269
:1047B000A7F13003092BF5D90892FAE49BF80070B1
:1047C0008DF87B40F3E4CDF81CA0012B3FF49BADAA
:1047D000022B52AD12D1189A04F00F032409D35CB6
:1047E00005F8013D44EA0674360954EA0603F3D19C
:1047F00052AB5B1BDDF81CA00B9392E504F00703A2
:10480000E40844EA4674F608303354EA06012A46BE
:1048100005F8013DF2D10799C80700F14C8252AB6F
:104820005B1B8A460B937CE5FFFFEF7F04F40110CE
:1048300008F4011014F40110652F40F3D780DDE96E
:1048400014010022002307F0DBFB002800F0B481F4
:10485000279BBC4AC8F80020013301340122072BF2
:1048600028942793C8F8042000F3848508F10808E9
:10487000209B129A934280F2CD82169B179A1C4479
:10488000C8E90023279B28940133072B279300F3C3
:10489000EA8308F10808129B5D1E002D7FF730AEF9
:1048A000102D279B41F34481A74F0E9722461026D7
:1048B00019EE104A05E008F10808103D102D40F3EC
:1048C000678501331032072BC8E90076CDE927321E
:1048D000F1DD26AA2146484605F05CFC00287FF45D
:1048E00092ADDDE927320DF1A408E6E70A9B079AAD
:1048F0009E1A002E7FF7EBAD102E279B41F34C80C4
:1049000091490F95224619EE105A0E910C4604E07B
:10491000103E102E08F1080819DD01331032102165
:10492000072BCDE92732C8F80040C8F80410EFDDA6
:1049300026AA294648460DF1A40805F02BFC0028BC
:104940007FF461AD103E102EDDE92732E5DC0F9DCE
:10495000144601330E9AC8F800203444072BCDE9E1
:104960002734C8F8046000F32F85089B0B9A9E1A21
:10497000002E08F108087FF7B0AD102E279B40F3FA
:10498000C48571480E904246214619EE108A0446AD
:1049900004E0103E102E02F1080216DD0133103142
:1049A0001020072BCDE9273114605060F1DD26AAD5
:1049B0004146484605F0EEFB00287FF424AD103E4A
:1049C000102EDDE9273129AAE8DC90460C46013398
:1049D0000E9AC8F800203444072BCDE92734C8F8D4
:1049E000046000F3CF8108F1080876E5129B012BE3
:1049F00040F37C81279EC8F8005001360134012322
:104A0000072E28942796C8F8043000F3E78108F1B0
:104A10000808169B179A01361C44072EC8E9002384
:104A2000CDE9276400F3E88108F10808DDE9140105
:104A30000022002307F0E4FA002840F07681129B60
:104A40000136013B01351C44072EC8F8005027965B
:104A5000C8F80430289400F35A8108F108081A9B1A
:104A6000C8F8043001361C44072E22ABCDE9276478
:104A7000C8F800307FF742AD19EE101A26AA484652
:104A800005F088FB00287FF4BEAC289C0DF1A4083B
:104A900036E5102EDDE9273222DD1D95102419EEB2
:104AA000105A04E0103E102E08F1080817DD0133FB
:104AB00026491032072BC8E90014CDE92732F1DD71
:104AC00026AA294648460DF1A40805F063FB0028F4
:104AD0007FF499AC103E102EDDE92732E7DC1D9DF6
:104AE000C8F804600133B418072B184AC8F800202E
:104AF000CDE9273400F3E2839DF87B3008F1080804
:104B0000BBE419EE101A26AA484605F043FB00281C
:104B10007FF479AC289C0DF1A408C1E419EE101AB9
:104B200026AA484605F036FB00287FF46CAC289C8A
:104B30000DF1A408C7E4102D279B26DD19EE107A8D
:104B400010260AE044F4011058F4011048F4011052
:104B5000103D102D08F1080817DD0133C24A10344A
:104B6000072BC8E90026CDE92734F1DD26AA39460E
:104B700048460DF1A40805F00DFB00287FF443AC76
:104B8000103D102DDDE92734E7DC0133B64AC8F8C3
:104B900004502C44072BCDE92734C8F800207FF7B8
:104BA000B8AC19EE101A26AA484605F0F3FA002808
:104BB0007FF429AC289CACE4209A002A40F3968329
:104BC000DDE911739F42A8BF1F46002F0BDD279B15
:104BD00001333C44072BC8E900572894279300F37E
:104BE0005C8508F10808119E002FA8BFF61B002E57
:104BF00000F35482119B1AF4806F2B440B9340F006
:104C00008482209B129A934203DB1AF0010F00F07A
:104C1000B884169A17991444C8E90012279A289460
:104C20000132072A279200F3778508F10808129AC3
:104C30000B99AE18761AD51AAE42A8BF2E46002E92
:104C40000DDD279BC8F8001001333444072BC8F84A
:104C500004602894279300F39E8508F10808002E2D
:104C6000A8BFAD1B002D7FF74BAC102D279B40F349
:104C70005F877E4F0E972246102619EE104A05E0F8
:104C800008F10808103D102D40F3828301331032E3
:104C9000072BC8E90076CDE92732F1DD26AA2146A7
:104CA000484605F077FA00287FF4ADABDDE92732FE
:104CB0000DF1A408E6E7302B3FF49AAD3023023A19
:104CC00005F8013C52AB9B1ADDF81CA00B9315466E
:104CD000FFF727BB089B002B7FF41AABDDF81CA065
:104CE000002308930B9352ADFFF71BBB1AF0010F83
:104CF0007FF480AE279EC8F80050013601340123AE
:104D0000072E28942796C8F804307FF7A6AE19EE30
:104D1000101A26AA484605F03DFA00287FF473AB26
:104D2000DDE927640DF1A40899E6129B5D1E002DB4
:104D30007FF795AE102D40F312874C4ACDF820A096
:104D4000234619EE10AA0E921027144605E008F12A
:104D50000808103D102D40F39D8301361033072EB7
:104D6000C8E90047CDE92763F1DD26AA5146484648
:104D700005F010FA00287FF446ABDDE927630DF15A
:104D8000A408E6E719EE101A26AA484605F002FA2A
:104D900000287FF438AB289C0DF1A408FFF79DBBD9
:104DA000079B13F0100340F02481079A12F0400291
:104DB00000F09B830D9A52F8044B0D921E46A4B24C
:104DC0000123FFF7D5BA2D2364428DF87B3066EBC3
:104DD0004606CDF81CA00123FFF7CDBA19EE101A34
:104DE00026AA484605F0D6F900287FF40CABDDE989
:104DF00027640DF1A4080CE619EE101A26AA4846FD
:104E000005F0C8F900287FF4FEAADDE927640DF15A
:104E1000A4080BE61AF0010F3FF472AB2DE59BF8E6
:104E200000700D93FFF7C3B952ADFFF77ABA1AF4C9
:104E3000007F40F0B083E6173346FFF756BA199B60
:104E4000002B3FF43AAA199B1B78002B3FF435AA9C
:104E50009BF800704AF4806AFFF7A9B90D9B53F8DC
:104E6000044B0D93FFF780BA48F4011058F4011079
:104E7000DDE9140102460B4607F0F4F8002840F083
:104E8000C485612F00F08385412F00F09584089B35
:104E9000013327F02003079300F0B083472B00F085
:104EA0007F85DDE914014AF4807200290B924FF0EE
:104EB0000003C0F2218541EC1B0B0E930C93079B62
:104EC000462B00F0F883452B00F04B85089B01939F
:104ED00024AB049321AB039320AB029302230093F2
:104EE000484653EC1B2B02F0BFFD079B472B0546A2
:104EF00040F065861AF0010F5646DDF82CA040F010
:104F00000785249B5B1B1293079B472B00F08A832A
:104F1000079B462B00F00F84209B1193119B079A4F
:104F2000013B412A209300F0D385FAB20021002BE7
:104F3000B8BF119B8DF88820BABFC3F101032D22A1
:104F40002B22092B8DF8892040F3B3850DF19704AE
:104F5000DFF894C3224610468CFB0321DA17C2EB1C
:104F6000A10202EB8201A3EB4101303100F8011CE8
:104F700019466329134600F1FF32ECDC3033D9B215
:104F8000831E9C4202F8011C40F2008613460DF17C
:104F90008A0201E013F8011B02F8011B9C42F9D1BF
:104FA0000DF199030DF18A021B1A134422AA9B1AD0
:104FB0001A93129B1A9A012B1A440B9240F3B38551
:104FC0000B9B169A13440B930B9A002326F48066CE
:104FD00022EAE27246F4807A1093079213931193B7
:104FE0000E9B002B40F0448308939DF87B30FFF725
:104FF000A6B90D9B53F8044B0D930123FFF7B8B9E5
:105000000D9B099853F8041B0D93C217C1E90002C8
:105010005D46FFF794BACDF81CA0FFF749BBAF4B34
:1050200018931AF0200600F0EF800D9B073323F051
:1050300007035E6853F8084B0D931AF0010F09D06F
:1050400054EA060306D030238DF87D704AF0020A38
:105050008DF87C302AF4806307930223FFF788B928
:105060009F4B1893DDE719EE101A26AA484605F063
:1050700091F800287FF4C7A9289C0DF1A4080AE440
:1050800019EE900A4021FEF715FB206020610028F0
:1050900000F0808540236361FFF751B8102E279BF5
:1050A00040F365858F480E904246214619EE108ADE
:1050B0001027044604E00832103E102E40F32E82E2
:1050C00001331031072BC2E90047CDE92731F2DD6A
:1050D00026AA4146484605F05DF800287FF493A9CA
:1050E000DDE9273129AAE7E7284608960D94FEF75F
:1050F000C7FE20EAE0719DF87B300B9007910C967B
:10510000109613961196FFF71AB9129BCDF838B086
:10511000DDF84CB00B9E199FCDF82CA0EB1808932E
:105120004246DDF870A0109B0F9519EE108AA44638
:10513000BBF1000F30D093BB013F0BF1FF3B1B9B3A
:10514000C2E9003A279B0133D444072BCDF8A0C015
:10515000279362DC0832089B38789B1B8342A8BFE8
:105160000346002B1C460CDD279801309C44072881
:10517000C2E90063CDF8A0C0279000F31881387809
:105180000832002CACBF051B0546002D0BDC064485
:10519000109BBBF1000FCED1002B00F03282109B90
:1051A000013B1093CBE7102D27981FDD1024634699
:1051B00004E0103D102D02F1080216DD01304949CE
:1051C00010330728C2E90014CDE92703F1DD26AA30
:1051D0004146484604F0DEFF00287FF414A9103D44
:1051E000102DDDE9270329AAE8DC9C4601303D4B60
:1051F0005560AC440728CDE9270C136000F33F82CB
:10520000387808320644C3E71AF0100300F0A38090
:105210000D9B53F8044B0D930FE726AA41464846D1
:1052200004F0B8FF00287FF4EEA8DDF8A0C029AA9A
:1052300091E7079B0B9703F48063002208EE109A16
:10524000CDF83080DDF864900DF5A47A17469846C5
:105250000CE00023204631460A2206F041FF0A2CCA
:1052600076F100031CD304460E46AA4620460A22C5
:105270000023314606F034FF30320AF1FF350137A2
:105280000AF8012CB8F1000FE3D099F800309F42E2
:10529000DFD1FF2FDDD00A2C76F1000380F04F81A3
:1052A00052AB5B1BCDF86490129718EE109ADDE9B3
:1052B0000B78DDF81CA00B93FFF733B819EE101A2A
:1052C00026AA484604F066FF00287FF49CA89DF8B3
:1052D0007B30289C0DF1A408FFF7CFB814F401101F
:1052E00028F4011058F4011067666666279BC049D0
:1052F000C8F80010013301340121072B28942793AB
:10530000C8F8041000F32F8108F10808002A40F0C3
:105310008A80129A0AF0010313433FF4F1A8169B06
:10532000179A1C44C8E90023279B28940133072BB4
:10533000279300F33F8108F10808129AC8F800503B
:1053400001331444072BCDE92734C8F804207FF734
:10535000D5A8FFF791BB1AF0400200F0B9800D9A72
:1053600052F8044B0D921E46A4B266E6CDF81CA07E
:10537000FEF7C9BF19EE101A26AA484604F00AFF24
:1053800000287FF440A8289C0DF1A408FFF770BA0C
:10539000144601330E9AC8F800202C44072BC8F895
:1053A0000450CDE927347FF7A9A8FFF765BB26AAEB
:1053B0004146484604F0EEFE00287FF424A83878E1
:1053C000DDF8A0C029AADCE619EE101A26AA484684
:1053D00004F0E0FE00287FF416A8289C0DF1A40834
:1053E000FFF775B8012BCDF81CA07FF4F1A9FEF7EB
:1053F0008FBF0D9B099953F8042B5D4611600D93E7
:10540000FFF79DB8089A0C95062A294628BF062260
:1054100008952B460792774D0D940B92109113919E
:105420001191FEF78CBF169B17991C44C8E9001315
:10543000279B28940133072B279300F3BB8008F1A7
:105440000808002ABFF679AF5642103280F2AB83CB
:1054500069480E9021464246102719EE108A0446EC
:1054600004E00832103E102E40F3B08201331031B8
:10547000072BC2E90047CDE92731F2DD26AA4146D4
:10548000484604F087FE00287EF4BDAFDDE92731F1
:1054900029AAE7E7DDF820A01C4601360E9BC8F8D4
:1054A00000302C44072ECDE92764C8F804507FF75C
:1054B000D4AA2CE40D9B1AF4007614BF53F8044BC5
:1054C00053F8044B0D931CBF1646E4B2FEF74CBFD5
:1054D0000D9B1AF4007614BF53F8044B53F8044B99
:1054E0000D931CBF1646E4B2A7E5079B13F40076A4
:1054F0000D9B14BF53F8044B53F8044B0D931CBF82
:105500001646E4B20123FEF733BF3B4A0E92FFF783
:105510005EBA2D238DF87B30FFF758B890460C46C5
:1055200001330E9AC8F800203444072BCDE9273404
:10553000C8F804604DDC08F10808FFF75BBB1C9B52
:105540001B99ED1A1A46284604F0F2FD99F801302D
:105550000BB109F10109204631460A220023002738
:1055600006F0BEFD7FE619EE101A26AA484604F0A2
:1055700011FE00287EF447AF209A289C0DF1A40864
:10558000C4E6129A0B99AE18761AD51AAE42A8BF85
:105590002E46FFF764BB44F3C016334664B2FEF7F1
:1055A000A4BE0D9B099953F8042B0D9311805D4601
:1055B000FEF7C5BF19EE101A26AA484604F0EAFD08
:1055C00000287EF420AFDDE92734209A0DF1A408ED
:1055D00037E719EE101A26AA484604F0DBFD00282A
:1055E0007EF411AF289C0DF1A408FFF703BB00BFA8
:1055F00044F401103CF4011058F401100623089300
:105600004FE40F9D129BDDF82CA0DDF838B0199700
:10561000EB189E429046324628BF1A4664460B92CB
:10562000FFF7EFBA209B1193DA1C02DB089A934232
:1056300004DD023F27F0200307936FE4DDE9113218
:105640009342C0F29A80F00740F1DC81169A13442D
:105650000B93710503D5119B002B00F3FC810B9B71
:1056600023EAE37307936727002310931393B7E4A8
:105670002D2300228DF87B300892FEF763BE26AA08
:105680004146484604F086FD00287EF4BCAE3878DA
:10569000DDF8A0C029AA06447AE519EE101A26AA58
:1056A000484604F077FD00287EF4ADAE289C0DF14D
:1056B000A408FFF798BA089B019324AB049321AB8D
:1056C000039320AB029303230093484653EC1B2B18
:1056D00002F0CAF90378302B054600F0FF81209BC9
:1056E000089A56461344DDF82CA0EC1851EC1B0B1D
:1056F0000022002306F084FC08B1234602E4249B28
:10570000A342BFF4FFAB30215A1C24921970249B92
:105710009C42F9D8FFF7F6BB19EE101A26AA4846A4
:1057200004F038FD00287EF46EAE209B289C0DF11D
:10573000A408FFF77CBA209A1192002A40F3FB815B
:10574000089906F001030B4340F0AD81119B0B93C8
:105750006627730500F180810B9B23EAE3730793AF
:1057600082E7089B07930B930D949DF87B3008907C
:10577000109013901190FEF7E2BD129B169A9A18A2
:10578000119B0B92002B40F3C5816727E1E70023B3
:105790000893FEF70EBD19EE101A26AA484604F02B
:1057A000F9FC00287EF42FAE209D129B289C5D1BE7
:1057B0000DF1A408FFF753BA30238DF87C3058233D
:1057C0008DF87D30089B632B4AF0020400F3A38020
:1057D00000230C9339ADDDE914124AF481730B9365
:1057E000002A27F02003A2460793C0F286800023F8
:1057F00042EC1B1B0E93612F00F01581412F7FF4AB
:105800005EAB20AA51EC1B0B04F014FC00224FF0FD
:105810007F5306F08DF902460B4643EC182B00220D
:10582000002306F0EDFB08B101232093B24B0F9348
:10583000089B1D95CDE910B7CDE912A80CEE109A82
:10584000DDF83CB059EC188B5E1E2C4605E00022BA
:105850000023013E06F0D4FBE0B9A84B00224046ED
:10586000494606F065F98946804606F011FC054672
:1058700006F0F4F80B4602464946404605F0A0FF04
:105880001BF80530A24604F8013B731C37468046DE
:105890008946DCD149EC188B994BDDF840B0DDF836
:1058A0004C80CDF840A051EC180B00223E46DDF8AC
:1058B00048A0119F11951CEE109A1D9D06F0C8FB83
:1058C00098BB51EC180B8E4B002206F099FB10B1DF
:1058D000119BD90729D4002E334606DB013323441C
:1058E000302204F8012BA342FBD1631B56461293CE
:1058F000DDF82CA0FFF708BB0C93DDE9141202F1D0
:1059000000430BEE903A2D230BEE101A0E9372E724
:10591000089BEC18EAE6591C4846FDF7CBFE054605
:10592000002800F043810C9055E7109B24930F9BB7
:1059300014F8012CD97B8A42234609D1302003F880
:10594000010C249B5A1E249213F8012C9142F6D08C
:10595000392A0BBF0F9A0132927AD2B203F8012C86
:10596000C3E7089B5C1C24AB049321AB039320ABDF
:10597000029302230093019453EC1B2B484602F040
:1059800073F8054656462C44DDF82CA0AEE63023CD
:105990008DF87C30782313E75A4A0E92FEF7D9BF70
:1059A000089B002B08BF01230893159B4AF48072C3
:1059B000002B0B92C0F2D9809DED147B0C900E90C1
:1059C000B0EE47BAF0EE67BAFFF780BA0C469046E1
:1059D00001330E9AC8F800203444072BCDE9273450
:1059E000C8F804607FF7A7AC19EE101A26AA48463B
:1059F00004F0D0FB00287EF406ADDDE927340DF17C
:105A0000A4089AE4119B0B9323E6159B3E4D3F4A55
:105A1000002BB6BF2D239DF87B308DF87B302AF00C
:105A2000800AFEF7D7BD20AA51EC1B0B04F002FB45
:105A300000224FF07F5306F07BF802460B4643EC02
:105A4000182B0022002306F0DBFA08B10123209373
:105A50002F4B0F93ECE6672719990B78FF2B00F07B
:105A6000B0800024119A204603E001300131FF2B61
:105A700008D0934206DAD21A4B78002BF5D10B7876
:105A80000134F4E71991119213901094109A139B1A
:105A90001C9913440B9A01FB03230B9323EAE37332
:105AA0000793FFF79DBA169BD31819440B916627ED
:105AB0004FE6002956D130228DF88A200DF18B0255
:105AC000303302F8013B22ABD31A1A93FFF771BAB5
:105AD00007F10F02D2B20121FFF729BA51EC1B0BDB
