:020000041000EA
:1000000000000220312A0010852800106F2A0010FD
:10001000712A0010732A0010752A001000000000D9
:10002000000000000000000000000000772A00101F
:10003000792A0010000000007B2A0010091200102D
:10004000812A0010832A0010852A001099140010BC
:10005000892A00104114001051140010611400107E
:10006000912A0010932A0010952A0010972A001058
:10007000992A00105D1200100114001011140010D4
:10008000A12A0010A32A0010A52A0010A72A0010F8
:10009000A92A0010AB2A0010AD2A0010AF2A0010C8
:1000A0003D1200104712001051120010B72A001024
:1000B000711400107B140010851400108F140010B0
:1000C000C12A0010C32A001021140010C72A0010F2
:1000D0006D120010CB2A0010CD2A0010CF2A00107C
:1000E000D12A0010D32A0010D52A0010D72A0010D8
:1000F000D92A0010DB2A0010DD2A0010DF2A0010A8
:10010000E12A0010E32A0010E52A0010E72A001077
:10011000E92A0010EB2A0010ED2A0010EF2A001047
:10012000F12A0010F32A0010F52A0010F72A001017
:10013000F92A0010FB2A00107D120010FF2A00107F
:10014000012B0010032B0010052B0010072B0010B3
:10015000092B00100B2B00100D2B00100F2B001083
:10016000112B0010132B0010152B0010172B001053
:10017000192B00101B2B00101D2B00101F2B001023
:10018000212B0010232B0010252B0010272B0010F3
:10019000292B00102B2B00102D2B00102F2B0010C3
:1001A00031140010332B0010352B0010372B0010AA
:1001B000392B00103B2B00103D2B00103F2B001063
:1001C000412B0010432B0010452B0010472B001033
:1001D000492B00104B2B00104D2B00104F2B001003
:1001E00010B5054C237833B9044B13B10448AFF371
:1001F00000800123237010BD000C002000000000CF
:10020000D403021008B5034B1BB103490348AFF3F5
:10021000008008BD00000000040C0020D403021080
:1002200004E011F8012B40F8042B1A46531E002A53
:10023000F7DC704708B5144A136823F4805323F0A1
:100240000103136002F58002136823F4805323F046
:100250000103136002F58002136823F4805323F036
:100260000103136002F58002136823F4805323F026
:1002700001031360012002F07FFB044804F0B6FA8A
:10028000034B186008BD00BF000010500000014083
:100290001C0C002004E051F8042B40F8042B1A46F3
:1002A000531E002AF7DC70470A4B07E053F8041B83
:1002B00042F8041B0146481E0029F7D119680A4676
:1002C00031B141F001010120087059680833F2E7AB
:1002D00001207047B4CE001008B560220A490B48CF
:1002E000FFF79EFF60220A490A48FFF799FF59224B
:1002F00009490A48FFF794FF5A2209490948FFF7BC
:100300008FFF012008BD00BF3CCD001000801050C1
:100310009CCD001000805050FCCD0010008090500B
:1003200058CE00100080D0500D4B00221A600D48AE
:100330000D49016040F20E4242600823836000F5DF
:10034000800001604260836000F5800001604260CF
:10035000836000F580000160426083600120704787
:100360000010005000001050080010002DE9F04F60
:10037000FA4B4FF0630CC3F810C04FF40062C3F89F
:1003800010234FF40054C3F8104448F62032C3F849
:1003900090254FF47842C3F8102AF827C3F8107656
:1003A0004FF4C856C3F810614FF4804EC3F890E77D
:1003B0004FF00112C3F81027E94AC2F810C04FF4F9
:1003C0000061C2F81013C2F810444FF4326BC2F847
:1003D00090B54FF47841C2F8101AC2F81076C2F8FE
:1003E0001061C2F890E7DF49C1F810C04FF4006017
:1003F000C1F81003C1F81044C1F890B54FF478402B
:10040000C1F8100AC1F81076C1F81061C1F890E780
:10041000D548C0F810C04FF40065C0F81053C0F8BC
:100420001044C0F890B54FF47845C0F8105AC0F8A1
:100430001076C0F8106145F23006C0F890674FF0B2
:100440005B09C3F814904FF48038C3F81483C3F8E1
:1004500014444FF40065C3F8145542F62035C3F830
:1004600094554FF47845C3F8145ADFF800C3C3F825
:1004700014C64FF4C056C3F814614FF48257C3F842
:1004800094774FF0FF37C3F81477C2F81490C2F88E
:100490001483C2F814444FF40065C2F81455C2F82E
:1004A00094B54FF47845C2F8145AC2F814C6C2F88D
:1004B0001461C2F81477C1F81490C1F81483C1F81C
:1004C00014444FF40065C1F81455C1F894B54FF4C5
:1004D0007845C1F8145AC1F814C6C1F81461C0F8BF
:1004E0001490C0F81483C0F814444FF40065C0F8A9
:1004F0001455C0F894B54FF47845C0F8145AC0F8B4
:1005000014C6C0F8146154259D610126C3F8986192
:10051000C3F898624FF40065C3F81853C3F8184441
:100520004CF6A03CC3F898C54FF4BC3AC3F818AADF
:100530004FF4BC79C3F818964FF4B058C3F818813B
:10054000C3F898E754259561C2F89861C2F898629B
:100550004FF40065C2F81853C2F818444FF43A6CCF
:10056000C2F898C5C2F818AAC2F81896C2F818813D
:10057000C2F898E754258D61C1F89861C1F8986276
:100580004FF40065C1F81853C1F81844C1F898C574
:10059000C1F818AAC1F81896C1F81881C1F898E7EF
:1005A000C1F8187754258561C0F89861C0F8986241
:1005B0004FF40065C0F81853C0F81844C0F898C547
:1005C000C0F818AAC0F81896C0F818814FF4A04EC9
:1005D000C0F898E7C0F818774FF0240AC3F81CA0B9
:1005E000C3F89C61C3F89C62C3F81C44C3F81C5553
:1005F00046F6A03EC3F89CE54FF4FC3EC3F81CEA67
:10060000DFF86C91C3F81C9641F21058C3F81C81B6
:10061000C3F89C47C3F81C77C2F81CA0C2F89C61C1
:10062000C2F89C62C2F81C44C2F81C55C2F89CC5B2
:10063000C2F81CEAC2F81C96C2F81C814FF440555F
:10064000C2F89C57C2F81C77C1F81CA0C1F89C6185
:10065000C1F89C62C1F81C444FF40065C1F81C55F8
:10066000C1F89CC5C1F81CEAC1F81C96C1F81C81F0
:10067000C1F89C47C1F81C77C0F81CA0C0F89C6169
:10068000C0F89C62C0F81C44C0F81C55C0F89CC55A
:10069000C0F81CEAC0F81C96C0F81C81C0F89C4742
:1006A0004FF00D09C3F82090C3F82053C3F820443D
:1006B0004EF6203CC3F8A0C5C3F820EADFF8B480AA
:1006C000C3F820864FF4A85CC3F820C1C3F8A04744
:1006D000C3F82077C2F82090C2F82053C2F8204413
:1006E000C2F8A0B5C2F820EAC2F82086C2F820C13C
:1006F000C2F8A047C2F82077C1F82090C1F8205373
:10070000C1F82044C1F8A0B5C1F820EAC1F820869C
:10071000C1F820C14FF44055C1F8A057C1F8207767
:10072000C0F820904FF40065C0F82053C0F8204472
:10073000C0F8A0B5C0F820EAC0F82086C0F820C1F3
:10074000C0F8A047C0F82077DFF82C80C3F82480D9
:10075000C3F8A461C3F8A46210E000BF0000105009
:1007600000005050000090500000D05018022001AE
:10077000900598039807A0050B000100C3F82444D6
:10078000C3F824554EF6A02CC3F8A4C54FF4784501
:10079000C3F8245ADFF8CCE2C3F824E64FF4A05C97
:1007A000C3F824C14FF4C049C3F8A497C3F8247711
:1007B000C2F82480C2F8A461C2F8A462C2F824443A
:1007C0004FF40065C2F824554FF42A6AC2F8A4A574
:1007D0004FF47845C2F8245AC2F824E6C2F824C17E
:1007E00047F24005C2F8A457C2F82477C1F8248024
:1007F000C1F8A461C1F8A462C1F824444FF40065B3
:10080000C1F82455C1F8A4A54FF47845C1F8245A7D
:10081000C1F824E6C1F824C1C1F8A497C1F824772F
:10082000C0F82480C0F8A461C0F8A462C0F82444D1
:100830004FF40065C0F82455C0F8A4A54FF47845DE
:10084000C0F8245AC0F824E6C0F824C1C0F8A49720
:10085000C0F824774FF40065C3F82853C3F8A863A1
:10086000C3F8284442F62035C3F8A855DFF8F881CC
:10087000C3F8288ADFF8F4E1C3F828E64FF4807C57
:10088000C3F828C14FF48059C3F8A897C3F8287754
:100890004FF40065C2F82853C2F8A863C2F8284490
:1008A000C2F8A8B5C2F8288AC2F828E6C2F828C15A
:1008B000C2F82877C1F82853C1F8A863C1F82844C2
:1008C000C1F8A8B5C1F8288AC1F828E6C1F828C13E
:1008D000C0F82853C0F8A863C0F82844C0F8A8B5E9
:1008E000C0F8288AC0F828E6C0F828C14FF4D03AEA
:1008F000C3F82CA3C3F8AC63C3F82C44C3F82C553D
:100900004EF6201BC3F8ACB54FF49049C3F82C9AAF
:10091000DFF85C81C3F82C86C3F82CC1C3F8AC4760
:10092000C3F82C77C2F82CA3C2F8AC63C2F82C44ED
:10093000C2F82C554FF4126EC2F8ACE5C2F82C9AEE
:10094000C2F82C86C2F82CC1C2F8AC47C2F82C778A
:10095000C1F82CA3C1F8AC63C1F82C44C1F82C55E4
:10096000C1F8ACE5C1F82C9AC1F82C86C1F82CC1AD
:10097000C1F8AC47C1F82C77C0F82CA3C0F8AC6321
:10098000C0F82C44C0F82C55C0F8ACE5C0F82C9A3F
:10099000C0F82C86C0F82CC143F25008C0F8AC87D0
:1009A000C0F82C774FF49239C3F83093C3F8B06392
:1009B000C3F83044C3F83055C3F8B0B54FF44048DD
:1009C000C3F8308A2548C3F83006C3F830C1C3F8ED
:1009D000B047C3F83077C2F83093C2F8B063C2F8BA
:1009E0003044C2F83055C2F8B0E5C2F8308AC2F8D7
:1009F0003006C2F830C1C2F8B047C2F83077C1F84B
:100A00003093C1F8B063C1F83044C1F83055C1F833
:100A1000B0E5C1F8308AC1F83006C1F830C14FF4F2
:100A20004153C1F8B037C1F830770D4BC3F830935C
:100A30003046C3F8B063C3F83044C3F83055C3F848
:100A4000B0E5C3F8308A0549C3F83016C3F830C1A1
:100A5000C3F8B047C3F83077BDE8F08FA035E03475
:100A60000000D050880A900903F80100B832C02A6B
:100A70000834C03310B50C4B00221A600B4C0C4BE1
:100A8000236001330B4A136002F58002136002F504
:100A900080021360084803F0A7FE012001F04AFF1E
:100AA000064B2360012010BD1C0C002000001050DC
:100AB000080810000000505000000140090010001C
:100AC00010B40022234C06E084460CF8023B1B0ABB
:100AD000437060460132022A11DC236804F50044A9
:100AE000022AF1D003704FEA132C80F801C04FEABC
:100AF000134C80F802C01B0EC3700430EAE70022DA
:100B000015480BE0036800F500400B701C0A4C70A0
:100B10001C0C8C701B0ECB7001320431022AF1DDEB
:100B200000220E4802E001F8013B0132032A0DDCED
:100B3000036800F50040032AF5D00B701C0A4C70C6
:100B40001C0C8C701B0ECB700431EEE701205DF89D
:100B5000044B7047008000510090C05000100051BD
:100B600010B50C4A0F24D4605460146000249460C3
:100B7000D4604FF08042936923F470330B430343F6
:100B80009361192002F0D2F90349652002F084F93B
:100B9000012010BD005800403502001001238B4297
:100BA00013D210B403F1804C0CF1FF3C50F82340F9
:100BB00040F82C4001338B42F4D301F180410139DC
:100BC00040F821205DF8044B704701F18041013964
:100BD00040F821207047000008B56422024903480C
:100BE000FFF758FB002008BD540C002000004050C7
:100BF00008B54FF480310020FFF7B2FFFFF794FBF8
:100C0000FFF752FBFFF768FBFFF7B0FB4FF4C8722A
:100C10000021024805F010FC002008BD540C002003
:100C200008B5FFF727FF01E003F082F8024B1B68CD
:100C3000002BF9D0002008BD1C0C002070B50C4C16
:100C40000C4E21463046FFF73BFF0B4D2946304600
:100C500000F004F97F220021204600F011F9D4F8B9
:100C60000A30C5F80530A37B6B72002070BD00BF51
:100C7000200C00203C0C0020480C002070B592B0E5
:100C80000DAD00210D910E910F9110911191012444
:100C90000D948DF8394005AE2022304605F0CCFB8E
:100CA00005945A4B06938DF81C4003238DF81D3094
:100CB000574B08930B9503968DF81040554803F059
:100CC0001DF8042002F0D2F901F07CFF524802F036
:100CD000A9F803AB93E8060002A800F03AFA90B92D
:100CE00041F63F720221029800F0DCF998B9FFF753
:100CF0007FFF002863D0494B4FF49C724849494814
:100D000005F0F8FB5BE0454B40F22D1244494648A4
:100D100005F0F0FBE4E7414B40F233124049434811
:100D200005F0E8FBE3E73D4B4FF49F723C49404838
:100D300005F0E0FB49E07F2A28BF7F2264213D487F
:100D4000FFF72CFFFFF748FF00284ED1FFF768FFA1
:100D5000002852D1FFF772FF30B1304B40F25312EE
:100D60002F49354805F0C6FB0298C36882680169BF
:100D700040680090314805F0BDFB314C94F90330D8
:100D800094F904200192009394F9023094F901201F
:100D900094F900102B4805F0ADFB94F9083094F954
:100DA00009200192009394F9073094F9062094F9F0
:100DB0000510254805F09EFB244802F033F8002179
:100DC000029800F0EDF80028ADD1029B5B68DB01D2
:100DD00003F272639A081E49A1FB0212520940F6FF
:100DE000E3418B42A7D80022A8E70C4B40F24912FE
:100DF0000B49184805F07EFBA8E7084B4FF4A77293
:100E00000749154805F076FBA4E700BFA08601005E
:100E1000C0FC011000A0024080841E0060FC011094
:100E200098FA011014FB0110ACFA0110DCFA011061
:100E300040FB0110540C0020C0FB0110ECFB011022
:100E4000480C002018FC01103CFC011020A10700F8
:100E50009F00EE0974FB01109CFB0110002302E0CF
:100E60000122CA540133042B09DC10F903C0C21853
:100E700092F905209445F3DB0022CA54F2E770474B
:100E8000914218DA0023182B14DC00B502E001337C
:100E9000182B0DDC00EB030C10F903E08E4500DC91
:100EA000C1549CF900E09645F1DB8CF80020EEE798
:100EB0005DF804FB7047704730B583B014460023DB
:100EC0000093ADF804300B098DF800300B0143F0AE
:100ED00008038DF80130A1F5906189B27E290FD801
:100EE00004226946006801F0F8F9054610B1284669
:100EF00003B030BD0DF1020001F067FC2060F6E7A1
:100F000006226946006801F0E8F905460028EED19E
:100F10000DF1020001F066FC2060E8E710B582B038
:100F20000446104600230093ADF804300B098DF8F9
:100F300000300B018DF80130A1F5906189B27E2956
:100F40000AD90DF1020101F045FC0622694620682C
:100F500001F0C3F902B010BD0DF1020190B201F031
:100F600030FC04226946206801F0B7F9F2E7F0B5D9
:100F700083B005460E4614461F4601AAFFF79CFFA4
:100F800008B103B0F0BD019A22EA0402019204EA1A
:100F900007031A43019231462846FFF7BFFFF0E7E7
:100FA000F0B583B00446012966D002296BD021B187
:100FB0006FF01507384603B0F0BD4FF4047640F2E9
:100FC0000D254FF4037101AA2046FFF775FF074670
:100FD0000028EFD10198810E83011B1A61F10001F5
:100FE000890041EA93719B001B1A61F10001C9005D
:100FF00041EA5371DB001B1841F10001D81827A307
:10100000D3E9002349410BF017FDA06001AA29464E
:101010002046FFF751FF07460028CBD1019943F244
:101020002D401EA3D3E90023A1FB00010BF004FD1A
:10103000E06001AA31462046FFF73EFF0746002840
:10104000B8D1019B190E1802C01841F100018900A6
:1010500041EA90718000C01841F10001CD0045EADD
:101060005075C300181A0C4A4FF0000365EB0101DC
:101070000BF0E2FC60609DE74FF40C7640F22D250A
:101080004FF40B719FE74FF4147640F24D254FF467
:10109000137198E7AFF3008040420F0000CA9A3BFB
:1010A000000000002DE9F0410446154601290ED04C
:1010B000022911D021B16FF015031846BDE8F08167
:1010C000012A43D117464FF00008464607E00027A3
:1010D0004FF00108464602E00027B84601260022EC
:1010E0004FF490612046FFF719FF03460028E4D132
:1010F0003146102001F05CFB06464146022001F01B
:1011000057FB06433946202001F052FB06430121DC
:10111000084601F04DFB46EA00024FF49661204676
:10112000FFF7FCFE03460028C7D12A4640F2B24131
:101130002046FFF7F3FE03460028BED101224FF4FC
:1011400090612046FFF7EAFE0346B6E76FF015030D
:10115000B3E770B584B006466B4683E806001421F9
:10116000012001F0DDF800284AD00446009901F082
:1011700035F8054628B1204601F0D6F8284604B0D7
:1011800070BD0121084601F013FB0346012240F225
:1011900081412046FFF7EBFE054618B1206801F0BB
:1011A00083F8E8E7642000F041F80021012001F015
:1011B000FFFA0346012240F281412046FFF7D7FEA5
:1011C00005460028EAD103AA40F2A4412046FFF7D1
:1011D00073FE05460028E1D1039B632BDED19DF809
:1011E0000410042001F0E4FA0346042240F2B64160
:1011F0002046FFF7BCFE05460028CFD13460BDE78E
:101200006FF00B05BAE7000010B501F071FD044C5A
:10121000D4E90023501C43F10001C4E9000110BDD2
:10122000E80D002008B501F0FDFD08BD08B54FF43C
:101230007A7303FB00F001F0F5FD08BD08B500204E
:1012400002F08CF908BD08B5012002F087F908BD4D
:1012500008B5022002F082F908BD000008B5024876
:1012600002F02CFA08BD00BF00D0014008B50248CA
:1012700002F024FA08BD00BF00E0014008B50248B2
:1012800002F01CFA08BD00BF00F00140F8B5174B92
:10129000984210D003F58053984222D003F5805332
:1012A000984220D003F57533984202D04FF0FF34B6
:1012B00002E0032400E0002465010D4E06EB441714
:1012C00003F006FFAB595BB1BB690BB93B6923B9AE
:1012D000074B03EB4414E36813B1384603F0F6FE02
:1012E000F8BD0124E8E70224E6E700BF002004403F
:1012F000000E002000B587B00023009301930293F5
:101300000393034648B1012830D0022830D0032887
:1013100001D0002202E01F2200E01C2200920833CC
:101320005B0103F1804303F520335A6842F0040265
:101330005A60104B586C48B16A4605A901F090F903
:1013400020B9059A93680BB1D0689847094B586D3E
:1013500048B16A4604A901F083F920B9049A936858
:101360000BB1D068984707B05DF804FB1D22D5E7A4
:101370001E22D3E70000002010B586B004460023EB
:1013800002930393049305931B4B984219D003F5E2
:101390008053984228D003F58053984226D003F515
:1013A0008053984224D003F5DB2303F580639842F1
:1013B00020D003F58063984201D0002302E00A2385
:1013C00000E00523029302AA01A90C4B586B01F01F
:1013D00047F938B9019A93680BB1D068984720460D
:1013E00003F0F8F906B010BD0623EBE70723E9E7A1
:1013F0000823E7E70923E5E700000140000000209B
:1014000008B50248FFF742FF08BD00BF00200440B6
:1014100008B50248FFF73AFF08BD00BF003004409E
:1014200008B50248FFF732FF08BD00BF0040044086
:1014300008B50248FFF72AFF08BD00BF00140840A6
:1014400008B50248FFF798FF08BD00BF0000014043
:1014500008B50248FFF790FF08BD00BF001001402B
:1014600008B50248FFF788FF08BD00BF0020014013
:1014700008B50020FFF73EFF08BD08B50120FFF7C3
:1014800039FF08BD08B50220FFF734FF08BD08B5D5
:101490000320FFF72FFF08BD00B583B002F05CFC0E
:1014A00010F0400F02D103B05DF804FB402002F0C1
:1014B00059FC01A9064B586A00F04FFF0028F2DBE7
:1014C000019A9368002BEED0D0689847EBE700BFF5
:1014D00000000020C269436813B1012B05D070479A
:1014E000212353610123136170472F2353610F237D
:1014F0001361704770B58AB00446C3691A68012148
:101500008DF81C10037BB3FA83F040098DF81D00A1
:101510008B4214BF002001208DF81E00022B14BF47
:10152000002301238DF81F308DF820108DF8211035
:1015300000238DF822308DF823305379003B18BFFB
:1015400001238DF8243063682BB18B4201D0002534
:1015500002E0274D00E0274D136816790DF1080CC5
:101560000AAA12E90700ACE803008CF80020A26880
:101570000192009600220121284602F005FC40BBA2
:1015800063682BB1012B01D0002002E0184800E075
:101590001848617B02F054FDD8B963682BB1012B68
:1015A00001D0002002E0124800E01248012102F0C0
:1015B00045FD70B963682BB1012B01D0002002E01A
:1015C0000B4800E00B48082102F034FD08B90AB0CE
:1015D00070BD63682BB1012B01D0002002E00448EC
:1015E00000E0044802F0C4FC6FF01500EFE700BF14
:1015F00000E00B40006004402DE9F04100294CD090
:1016000080460D468B69002B4AD02421012000F032
:1016100087FE0446002846D01821012000F080FEF5
:101620000646002836D0AF692B6863606B68A360FC
:101630002B7A23736B7A6373AB7AA3730760E061D1
:101640006368012B0AD96FF01505304600F06CFE77
:10165000204600F069FE2846BDE8F0812046FFF7ED
:1016600049FF05460028F0D1B96881B1FA683B69A5
:101670009A4202D36FF01505E7E706F10C0000F07F
:1016800053FB08B10546E0E72046FFF723FFC8F803
:101690000040E0E76FF00B05D7E76FF01505DAE7DC
:1016A0006FF01505D7E76FF00B05D4E7A0B110B5C3
:1016B000044643682BB1012B01D0002002E008480A
:1016C00000E0084802F054FCE06900F02DFE2046DE
:1016D00000F02AFE002010BD6FF01500704700BF1B
:1016E00000E00B40006004402DE9F843C6694A69F8
:1016F0004FF47A73456903FB02558A69876903FBD6
:1017000002777368AB4205D043684BB1012B05D01B
:10171000002406E0B368BB42F6D133E0214C00E080
:10172000214CD4F81080204602F04AFC1F4901EBFE
:101730005001B1FBF0F97368AB420ED055B3B5FB65
:10174000F9F1FF2920D8236923F0FF032361FF204B
:1017500001F02EF8236903432361B368BB420FD025
:10176000F7B1B7FBF9F1FF2916D8236923F47F43BA
:1017700023614FF47F4001F01BF823690343236189
:101780007560B760BDE8F883094804F015FFC4F838
:101790001080F7E70121D6E7064804F00DFFF6E7D1
:1017A0000121E2E700E00B400060044000CA9A3BE0
:1017B00068FC011094FC01102DE9F04F83B00090FB
:1017C0008B46019243682BB1012B01D0002502E02A
:1017D000644D00E0644D0099002900F0BC80BBF12D
:1017E000000F00F0BB800E460C7B604A52F823309D
:1017F000A34209D00846FFF77DFE002840F0A880EC
:1018000072685A4B43F822406B6823F470236B6074
:10181000009B197B4FF0010808FA01F14FF470208A
:1018200000F0C6FF6B6803436B604FF0000AC146CF
:1018300025E06B6843F480736B6039E0002653E069
:10184000921B3144284602F001FC0644A368B342CF
:1018500014BF4FF000094FF0010964E02B6A13F444
:10186000006FFBD06B6823F020036B60EB6923F003
:101870004013EB612069FFF7D5FC0AF1010A019BD7
:101880009A4564D2EB6943F08013EB612B6A43F411
:1018900000632B620023AB60CAEBCA04A6000BEB0B
:1018A0008404237B002BC4D06B6823F480736B60AB
:1018B00021460098FFF718FF5BF80630002BBDD0DB
:1018C000A368AB60EB6943F04003EB61A2685BF88F
:1018D0000610284602F0BAFB0646A368834214BFEE
:1018E0004FF000094FF00109636863B1A168204817
:1018F00000F05EFFAB680343AB60EB6943F4800329
:10190000EB614FF000086B6843F020036B60002729
:10191000B8F1000F02D0B9F1000F9FD1216811B1C9
:10192000A268B2428CD861680029F1D0A268BA429C
:10193000EED9D21B3944284602F084FB0744A36841
:10194000BB4214BF4FF000084FF00108E0E7002051
:1019500003B0BDE8F08F6FF01500F9E76FF01500E8
:10196000F6E700BF00E00B4000600440F80D0020E7
:101970000000FFFF00B589B0002301930293039399
:101980000493059306930793019102910392012218
:101990008DF8102001A9FFF70FFF09B05DF804FBD7
:1019A0002DE9F04F87B005460F46904603939DF80A
:1019B0004430029343682BB1012B01D0002402E094
:1019C000904C00E0904CEE6995F80C908F4A52F8DC
:1019D00023304B4509D02846FFF78CFD01900028A5
:1019E0005BD16A68894B43F82290636823F47023C3
:1019F00063602B7B012199404FF4702000F0D8FEEA
:101A00006368034363602421404600F089FC8146FB
:101A1000002800F0F2802421404600F081FC82463C
:101A2000002800F0E6801C21012000F079FC8346AC
:101A3000002800F0DA80E36943F08013E361236A51
:101A400043F4006323623B7B5BB3636823F48073DE
:101A50006360BB68A360E36943F04003E361B96876
:101A60006B4800F0A5FEA3680343A360E36943F459
:101A70008003E361E36943F08023E36105A9F06833
:101A800000F0B6F9019088B1584600F04DFC504680
:101A900000F04AFC484600F047FC019807B0BDE85A
:101AA000F08F636843F480736360D2E704A9F06841
:101AB00000F09EF9019000285AD1CBF80050049B09
:101AC000CBF80830059BCBF80430CBF80CA0CBF852
:101AD0001090029B2BB1039BCBF81430109BCBF8DA
:101AE000183000222EE0C2EBC20007EB800102EBAF
:101AF000C2039D000AEB830357F820004AF8050053
:101B000070695860886898604FF0070C83F81CC0B3
:101B100040481861C3F814B0012018733068006998
:101B2000986109EB05004B684360336949F805305B
:101B30008B68836080F81CC0022303733368DB6802
:101B4000836101324245CED3049B42464946F06848
:101B500000F004FA019080B10599F06800F0CDF929
:101B60000499F06800F0C9F90499F06800F069F987
:101B70000599F06800F065F986E7059B42465146F5
:101B8000F06800F0EBF901900028EDD10499F068BD
:101B900000F08BF901900028DED10599F06800F083
:101BA00084F901900028D7D1636843F02003636073
:101BB000029B002B7FF471AF0499F06800F080FA6B
:101BC0000028F9D00599F06800F07AFA0028F3D0DF
:101BD000236B13F0010FFBD1636823F020036360D4
:101BE000E36923F04013E36157E76FF00B030193C0
:101BF0004DE76FF00B0301934CE76FF00B0301937C
:101C00004BE700BF00E00B4000600440F00D0020F7
:101C10000000FFFF411C001010B582B001240194A8
:101C2000049C0094FFF7BCFE02B010BD00B583B069
:101C3000002301930093FFF7B3FE03B05DF804FBAC
:101C4000F8B50F4614461368DD695B682BB1012BAC
:101C500001D0002602E01A4E00E01A4EA168E868A2
:101C600000F033FA28B16168E86800F02EFA002825
:101C7000F4D1336B13F0010FFBD167B1B968B160D8
:101C8000114800F095FDB3680343B360736843F0F7
:101C900020037360F8BD63690BB1A0699847606861
:101CA00000F0F2F8A06800F0EFF8E06800F03CFB0C
:101CB000206900F039FB204600F036FBEAE700BF60
:101CC00000E00B40006004400000FFFF38B528B37F
:101CD000054683692BB3002408E0AB6804EB84025B
:101CE00003EBC203186A00F056FD01346B68A3428F
:101CF00007D9AB68986800F031FC03460028ECD0A7
:101D000010E0E86900F047FDEB685B6828469847FB
:101D1000034638B9AA69013AAA6103E06FF01503D6
:101D200000E00023184638BD2DE9F04383B00029B8
:101D300055D005460E468B68002B53D01B68002BF0
:101D400053D001A800F024FD019800F022FDB368F3
:101D50001B68314628469847074630B1019800F085
:101D600019FD384603B0BDE8F08328681C3000F048
:101D70000FFD2B68B268DA6000247368A34216D99D
:101D80002B68986804EB84034FEAC30800EBC30098
:101D900000220121083000F083FB8146E8B92B685E
:101DA00098684044203000F0F3FC0134E5E72A68ED
:101DB000936901339361019800F0ECFCD1E72B6843
:101DC0009B684344986800F0C9FB0136B442F6D8DA
:101DD0002868FFF77BFF4F46C0E70026F6E76FF065
:101DE0001507BEE76FF01507BBE76FF05707B8E7B9
:101DF00070B582B0E0B10D460446C368DBB19B68A4
:101E0000E3B1C06900F0C5FCE3689B6801A9204606
:101E10009847064630B9A268019B03EB830302EBA7
:101E2000C3032B60E06900F0B5FC304602B070BD22
:101E30006FF01506F9E76FF01506F6E76FF0570635
:101E4000F3E738B5A0B10C460546C3689BB1A9B10C
:101E5000DB68B3B1086A00F09CFCEB68DB682168C2
:101E6000284698470546206A00F094FC284638BD6D
:101E70006FF01505FAE76FF01505F7E76FF0150538
:101E8000F4E76FF05705F1E738B50446006A00F053
:101E900080FC3CB1002584F82450206A00F07AFCD4
:101EA000284638BD6FF01500FBE738B5C8B10C46C1
:101EB0000546C368C3B1D1B15B69DBB1086A00F004
:101EC00068FC286910B1E16800F031F9EB685B69E2
:101ED0002146284698470546206A00F05BFC2846C4
:101EE00038BD6FF01505FAE76FF01505F7E76FF0ED
:101EF0001505F4E76FF05705F1E730B583B000B38F
:101F00000C460546C368FBB109B39B6913B3086A65
:101F100000F03FFC286910B1E16800F019F901A94F
:101F2000A06800F042FA0028F9D0EB689B692146CE
:101F3000284698470546206A00F02CFC284603B046
:101F400030BD6FF01505F9E76FF01505F6E76FF096
:101F50001505F3E76FF05705F0E700002DE9F041B4
:101F600084B01D4600230093019302930393384BE2
:101F7000009300285ED00E461746804600295CD0AC
:101F8000002A5DD0002D5ED0286A00F002FC337F6D
:101F90008DF80930337B012B0ED9022B03D1082396
:101FA0008DF808300BE06FF01504286A00F0F2FBA2
:101FB000204604B0BDE8F0810A238DF808300024E3
:101FC00007E004EBC40106EB8101A86800F041FAC8
:101FD0000134BC42F5D3D8F81030002B36D0C5F808
:101FE00010806D6105F1100301932B680393D8F8FD
:101FF0000C301B69314628469847044658B9D8F832
:1020000020306BB100936A46E968D8F8100000F000
:102010007BF8044638B129464046FFF76EFFC4E717
:102020000B4B0093EFE7B269E968D8F8100000F0B5
:10203000A0F8BDE76FF01504BAE76FF01504B7E735
:102040006FF01504B4E76FF01504B1E70024AFE7B3
:102050005520001010B584B00446436802A9986862
:1020600000F0A3F9E8B9636803A9986800F075F96E
:10207000636801A9986800F08DFA0298036913B1AA
:10208000426903999847019B83B12368DB681B6908
:1020900003996068984761682068FFF706FF04B0FD
:1020A00010BD61682068FFF728FFF8E723686268C1
:1020B000D168186900F04CF8636801221A71EEE7E4
:1020C00009B1087970470120704738B5A0B10C46B6
:1020D0000546C36893B199B11B6A9BB1086A00F0C9
:1020E00058FBEB681B6A2146284698470546206A3C
:1020F00000F050FB284638BD0125FBE70125F9E734
:102100000125F7E70125F5E740B10346406840B1F6
:1021100010B5446844B11846A04710BD6FF01500D3
:1021200070476FF0150070476FF05700F5E730B15A
:1021300008B5426832B192693AB1904708BD6FF074
:10214000150070476FF01500F8E76FF05700F5E7DE
:1021500030B108B5426832B1D2693AB1904708BD92
:102160006FF0150070476FF01500F8E76FF057003B
:10217000F5E740B10346406840B110B5046A44B188
:102180001846A04710BD6FF0150070476FF015009E
:1021900070476FF05700F5E738B504461C21012061
:1021A00000F0BEF8A8B1054600F0F2FA0020287150
:1021B0002368AB606368EB60637A2B74A37A6B74FB
:1021C000E3686B61A369AB612268034B43F822505B
:1021D00038BD6FF00B00FBE7800E0020002937D0E0
:1021E00038B505460C46CB68002B35D01B68002B54
:1021F00035D00B68082B35D81C4A52F8233003B36E
:10220000E3681B682146284698470246B8B920680B
:102210002B68164951F8201019602B6819680B7942
:1022200001330B712B68E16819612B68E169196250
:102230002B681433103494E8030083E8030010463D
:1022400038BD0846FFF7A8FF02460028D8D0F6E7B9
:102250006FF01502104670476FF01502EFE76FF050
:102260005702ECE76FF01502E9E700BF800E00208F
:1022700038B505460B4B53F8204023790BB1013B91
:102280002371237903B138BD206800F084FA002C53
:10229000F9D0204600F048F8024B002243F82520F0
:1022A000F1E700BF800E002070B110B5044603694D
:1022B0006BB1036813B19868FFF7DAFF23695B69B4
:1022C00043B12046984710BD6FF0150070476FF07E
:1022D0001500F8E76FF05700F5E770B5B8B10E4696
:1022E000154604460369ABB15B68B3B1036818686F
:1022F00000F04FFA23695B682A463146204698472A
:1023000005462368186800F045FA284670BD6FF04E
:102310001505FAE76FF01505F7E76FF05705F4E7D5
:1023200008B503F0C5FC08BD08B503F033FD08BDD2
:10233000401A8010704720B143691B681960002063
:1023400070474FF0FF30704720B143695B681960F8
:10235000002070474FF0FF30704748B159B100225C
:102360000A6043691B684BB11B680B6010467047DD
:102370004FF0FF3070474FF0FF3070474FF0FF30A5
:10238000704748B159B100220A6043695B684BB19C
:102390001B680B60104670474FF0FF3070474FF0DE
:1023A000FF3070474FF0FF30704718B338B521B396
:1023B00000220A6043699A6812B318684468826808
:1023C00004B1A26002B154605C681D68AA420CD0DE
:1023D0001A6004B102B95A609A68013A9A600368B7
:1023E0000B60FFF7A1FF002038BD0AB1002CF3D12C
:1023F0001C60F1E74FF0FF3070474FF0FF30F3E71C
:102400004FF0FF30F0E7D8B1E9B100220A6043692C
:102410009A68DAB110B558684268846802B194606D
:1024200004B162601C685A6004B102B91A609A680B
:10243000013A9A6003680B60FFF776FF002010BD39
:102440004FF0FF3070474FF0FF3070474FF0FF30D4
:102450007047F0B170B50E46446965680C210120E3
:10246000FFF75EFF034618B10660456000228260F8
:1024700093B105B1AB6013B15D6000229A60226830
:10248000636002B103B92360A3680133A360002035
:1024900070BD4FF0FF3070474FF0FF30F8E700009D
:1024A000002843D0F8B50E461546074618210120EE
:1024B000FFF736FF044600283BD01C210120FFF720
:1024C0002FFF0346A0B13C606061BDB1DD60012E0D
:1024D00016D0032E1FD1184A2260184A6260184A8B
:1024E000A260184AE260184A22615B610020F8BDD0
:1024F0002046FFF719FF4FF0FF30F8E7134DE5E7EF
:10250000134A22600D4A62600D4AA2600D4AE260E1
:102510000D4A2261E9E70E4A22600E4A6260094ACA
:10252000A260074AE2600C4A2261DEE74FF0FF300A
:1025300070474FF0FF30DAE74B270010AB23001055
:102540005B23001083230010372300103123001079
:10255000532400100724001049230010A0B110B527
:1025600082B0044643691B698BB901A92046FFF775
:102570001CFF0028F9D06069FFF7D6FE2046FFF760
:10258000D3FE002002B010BD4FF0FF3070474FF077
:10259000FF30F7E728B139B143699B680B60002031
:1025A00070474FF0FF3070474FF0FF30704730B347
:1025B00070B50E46446925680C210120FFF7B0FE76
:1025C000034618B10660002242608560D3B113B1A2
:1025D00000225A609D6005B16B60626821688B4281
:1025E00008D0236002B103B96360A3680133A3601C
:1025F000002070BD0BB1002AF7D12260F5E74FF043
:10260000FF3070474FF0FF30F3E7A0B170B50D46D3
:10261000064603681C6854B13368DB6829462068A5
:102620009847034608B1A468F5E7746001E04FF0ED
:10263000FF33184670BD4FF0FF331846704730B176
:1026400043683BB149B11B680B60002070474FF0F5
:10265000FF3070474FF0FF3070474FF0FF3070474A
:1026600098B138B50D46114695B100222A604469EB
:102670008CB12368A36114342046FFF7C6FF68B904
:1026800029462046FFF7DBFF38BD4FF0FF3070478B
:102690004FF0FF30F8E74FF0FF30F5E74FF0FF3035
:1026A000F2E700284BD0F0B587B00D46044603682A
:1026B00005931AB140685968884225D01AB96168F3
:1026C0001B68994225D04AB36668B7680C2101207F
:1026D000FFF726FE034610B1056046608760002BB9
:1026E00030D059689A6811B12BB3184688600BB185
:1026F00059609A600AB103B353602268936801334A
:102700009360002007B0F0BD29466846FFF7A1FEA0
:10271000F8E729466846FFF74AFFF3E766687768F7
:102720000C210120FFF7FCFD03460028D7D00560EF
:1027300047608660D3E71046D8E70B46DCE74FF0EA
:10274000FF3070474FF0FF30DCE7F0B170B50E4658
:1027500045692C683CB1EB683146206898470028F1
:1027600001DCA468F6E73CB1AC610022314605F11A
:102770001400FFF796FF70BD6B68AB610122314614
:1027800005F11400FFF78DFFF5E74FF0FF307047BC
:1027900070477047704770470346002001E05B08B0
:1027A00001301BB113F0010FF9D000E02020704779
:1027B00038B505460C46FFF7EFFF04FA00F0284055
:1027C00038BD4870000A087070474378007843EAC3
:1027D00000207047C870030A8B70030C4B70000E0A
:1027E00008707047C378827843EA0223427843EA4C
:1027F0000243007843EA00607047000008B50346D2
:10280000014803F077FEFEE7D8FC011008B502226C
:102810004FF4E131024B186802F048FB08BD00BFDD
:102820005800002010B5002000F080FB012000F0CF
:102830007DFB402000F07AFBFFF7E8FF041E0CDB75
:1028400000F0DAF858B900F0B9F8044660B9094B5D
:102850004322DA60084800F0E5FA204610BD7122F4
:1028600006490748FFF7CAFF762204490448FFF7E4
:10287000C5FF00BF00440040400D0300F4FC011000
:1028800034FD011000BF70474FF0FF3070474FF02C
:10289000FF3070474FF0FF3070474FF0FF30704708
:1028A0002DE9F041D8B90C4690460546074602E0AE
:1028B00001340137013545450EDA0C4E304602F041
:1028C000EBFBC1B22170304602F0E8FB23780D2B00
:1028D000EED10A23237001373846BDE8F08103F0BA
:1028E0002FFA092303604FF0FF37F5E7002004407B
:1028F00070B50138012813D80C461646002505E0AE
:1029000014F8011B0A4802F0C9FB0135B5420DDA83
:1029100023780A2BF4D10D21054802F0BFFBEFE725
:1029200003F00EFA092303604FF0FF36304670BD06
:102930000020044010B504460B4B1B6883420CD9A1
:102940000A4A04EB440302EB830304EB4404596892
:1029500052F8240000F0E8FD10BD3B220449054870
:10296000FFF74CFFECE700BF60FD01103CFD0110DC
:1029700080FD0110ACFD011010B504460B4B1B6827
:1029800083420CD90A4A04EB440302EB830304EBB1
:102990004404596852F8240000F0AEFD10BD4622F0
:1029A00004490548FFF72AFFECE700BF60FD01106E
:1029B0003CFD011080FD0110ACFD011038B5002474
:1029C000254600E001340A4B1B68A3420ED920467D
:1029D000FFF7D2FF04EB4403064800EB830000F04E
:1029E0007BFC0028EED06FF00705EBE7284638BDEA
:1029F00060FD01103CFD011038B50024254600E0C3
:102A00000134094B1B68A3420BD904EB440307486C
:102A100000EB830000F060FC0028F1D06FF00705A8
:102A2000EEE7284638BD00BF64FD011068FD0110C7
:102A3000474885464748804780B94749474A484BF9
:102A40009B1A03DD043BC858D050FBDC4549464A7D
:102A500000209142BCBF41F8040BFAE7434880478D
:102A60004348804743488047FFF7FEFFFEE7FEE705
:102A7000FEE7FEE7FEE7FEE7FEE7FEE7FEE7FEE72E
:102A8000FEE7FEE7FEE7FEE7FEE7FEE7FEE7FEE71E
:102A9000FEE7FEE7FEE7FEE7FEE7FEE7FEE7FEE70E
:102AA000FEE7FEE7FEE7FEE7FEE7FEE7FEE7FEE7FE
:102AB000FEE7FEE7FEE7FEE7FEE7FEE7FEE7FEE7EE
:102AC000FEE7FEE7FEE7FEE7FEE7FEE7FEE7FEE7DE
:102AD000FEE7FEE7FEE7FEE7FEE7FEE7FEE7FEE7CE
:102AE000FEE7FEE7FEE7FEE7FEE7FEE7FEE7FEE7BE
:102AF000FEE7FEE7FEE7FEE7FEE7FEE7FEE7FEE7AE
:102B0000FEE7FEE7FEE7FEE7FEE7FEE7FEE7FEE79D
:102B1000FEE7FEE7FEE7FEE7FEE7FEE7FEE7FEE78D
:102B2000FEE7FEE7FEE7FEE7FEE7FEE7FEE7FEE77D
:102B3000FEE7FEE7FEE7FEE7FEE7FEE7FEE7FEE76D
:102B4000FEE7FEE7FEE7FEE7FEE7FEE7FEE7FEE75D
:102B500000000220392C0010E803021000000020C1
:102B60001C0A0020000C0020341800203D2C00100E
:102B70004D5D00107D0C001008B503460B4A12682D
:102B800042B10A4A10680344094A934206D8074AE8
:102B9000136008BD054A07491160F2E703F0D0F859
:102BA0000C2303604FF0FF30F3E700BFA40E0020BA
:102BB00000F00120381800206FF0100070476FF00F
:102BC000100070474FF080439B6803F46063B3F5D7
:102BD000206F1BD00AD8B3F5C06F1AD0B3F5006FC1
:102BE00001D1114B09E0BBB9104B06E0B3F5406FC2
:102BF00014D0B3F5606F14D10D4B4FF08042926842
:102C0000C2F38212D3400B4A136070474FF4E103C2
:102C1000F3E747F23053F0E7034BEEE74FF400439E
:102C2000EBE7014BE9E700BF00E1F50500879303FF
:102C3000C0687804341800200020704710B50A4C92
:102C40000A4BA3600A4801F059F8D4F8883043F4DD
:102C50007003C4F88830BFF34F8FBFF36F8FFFF757
:102C6000B1FFFFF7DFFD10BD00ED00E00000001038
:102C700000A0024038B54FF0E02318499C691A695A
:102C800022F480320A601A69D20723D46FF07F449D
:102C900005225C614FF080759C611A61104B114AEE
:102CA00019680023A0FB010109F0C6FE0E4BB0FB22
:102CB000F5F205FB120084421A6007D81A68013247
:102CC0001A602C44094B201A186038BD074B201A93
:102CD000186038BD5D690135E0E700BFAC0E00202B
:102CE0003418002040420F005C000020B00E00208D
:102CF00070B54FF0E0242369DB0306D50E4D2B6839
:102D0000002B03DD2B68013B2B6070BD0B4E33683D
:102D10005BB16FF00F009847094A002333601268D7
:102D200022614FF0FF332B6070BD054A4FF0FF3337
:102D3000126822612B6070BD5C000020A80E00208C
:102D4000AC0E002010B50C4C0C4B22681960002A08
:102D50000FDC08B9002010BDFFF78CFF2368002BA3
:102D6000F8DD4FF0E0220020136943F00203136105
:102D700010BD6FF0050010BD5C000020A80E002003
:102D8000F8B5174C2368002B1EDB26682EBB154BAD
:102D90004FF0E0251B68AA699A421ED8124F3B6883
:102DA0005BB16FF00F009847104B3E601A682A61C4
:102DB0004FF0FF3323600020F8BD0C4A4FF0FF3383
:102DC00012682A612360F6E7074C2368002BF2D0D3
:102DD0000020984700202060F8BD6FF00500F8BD86
:102DE0005C000020B00E0020A80E0020AC0E0020D9
:102DF00010B5094C236823B16FF00F0098470023EA
:102E00002360064A064B10684FF0E0214FF0FF3276
:102E100008611A6010BD00BFA80E0020AC0E002093
:102E20005C00002038B5184C2268002A29DC00B963
:102E300038BDFFF71FFF4FF0E02202E01369DB030C
:102E40001BD42368002BF9DC104B1A684FF0E021EB
:102E50008B699342FCD80E4D2B6823B16FF00F00A5
:102E6000984700232B600B4B4FF0E022196811614B
:102E70004FF0FF330020236038BD2368013B2360FF
:102E8000DFE76FF0050038BD5C000020B00E0020C9
:102E9000A80E0020AC0E0020F8B50F4E0F4BB26804
:102EA0009A4204460D4600F1100707D018460C4917
:102EB0004FF4F07203F026FA0346B060002C43F89A
:102EC000275008DB074B6209012004F01F0400FAB9
:102ED00004F443F82240F8BD00ED00E000100020AB
:102EE0000000001000E100E03F2809D90E4A4038F8
:102EF000D168C0B2012303FA00F00843D0607047E4
:102F00001F284FF0804208D92038916CC0B20123AD
:102F100003FA00F0084390647047516A012303FAF2
:102F200000F0084350627047000008403F280AD96B
:102F300010494038CB68C0B2012202FA00F023EAFF
:102F40000000C86070471F284FF0804109D9203821
:102F50008B6CC0B2012202FA00F023EA0000886400
:102F600070474B6A012202FA00F023EA000048622F
:102F7000704700BF0000084010B507280AD8DFE8F6
:102F800000F00C09092333475B04BDE810403648C4
:102F900000F0A2B96FF0020010BD4FF08044002194
:102FA000A36843F48023A3604FF47A70FFF7CAFE4E
:102FB00003E0FFF7E5FE063052D1A3685901F8D5CA
:102FC000FFF716FF002010BD00214FF47A70FFF7C5
:102FD000B9FE4FF0804403E0FFF7D2FE06303FD148
:102FE000A3689A00ECD4F7E74FF080440021A3686F
:102FF00043F40023A3604FF47A70FFF7A3FE03E0CD
:10300000FFF7BEFE06302BD1A3681B01F8D5D7E72A
:103010004FF080440021A36843F48013A3604FF471
:103020007A70FFF78FFE03E0FFF7AAFE063017D194
:10303000A368D800C4D4F7E74FF080440021A36808
:1030400043F40033A3604FF47A70FFF77BFE03E094
:10305000FFF796FE063003D1A3689B01B0D4F7E7D3
:103060006FF0090010BD00BFBCFD011038B54FF076
:1030700080439D68072824D8DFE800F02623233307
:103080003C4B5A045D4800F027F9C8B94FF0804224
:10309000936843F46063936000214FF47A70FFF704
:1030A00051FE4FF0804403E0FFF76AFE06304ED138
:1030B000A3689B04F8D5FFF79BFEFFF783FD002074
:1030C00038BD6FF0020038BD4FF08044A16811F4A4
:1030D000802146D04FF08042936823F46063936070
:1030E000DAE74FF08042936823F4606343F4C063EF
:1030F0009360D1E74FF08044A16811F4002169D0BA
:103100004FF08042936823F4606343F4006393605C
:10311000C2E74FF08044A16811F4801147D04FF00E
:103120008042936823F4606343F420639360B3E7C1
:103130004FF08044A16811F4003125D04FF0804257
:10314000936823F4606343F440639360A4E7A36847
:1031500005F4606523F460632B43A3606FF00900FE
:1031600038BDA36843F48023A3604FF47A70FFF75F
:10317000E9FD03E0FFF704FE0630EFD1A368580134
:10318000F8D5FFF735FEA5E7A36843F40033A36045
:103190004FF47A70FFF7D6FD03E0FFF7F1FD06303C
:1031A000DCD1A3689A01F8D5FFF722FEC6E7A36831
:1031B00043F48013A3604FF47A70FFF7C3FD03E07C
:1031C000FFF7DEFD0630C9D1A368D900F8D5FFF7B7
:1031D0000FFEA4E7A36843F40023A3604FF47A70C2
:1031E000FFF7B0FD03E0FFF7CBFD0630B6D1A368D3
:1031F0001B01F8D5FFF7FCFD82E700BFBCFD011005
:103200003F280AD94038114AC0B2012303FA00F01E
:10321000906093681842FCD170471F280BD9203862
:10322000C0B201234FF0804203FA00F05064536CA7
:103230001842FCD1704701234FF0804203FA00F09E
:10324000506053681842FCD1704700BF000008402E
:103250000F2870B516D800EB80000D4E840033594E
:1032600083B10C48012102F077FC054668B9331997
:103270003051DB6807481D605A685A6002F07AFCDA
:10328000284670BD6FF00205FAE76FF00505F7E715
:10329000E4110020E0110020C10710B5044608D455
:1032A000A2070BD463070ED42046BDE8104002F0FD
:1032B00067BC0020FFF73AFEA207F3D50120FFF715
:1032C00035FE6307F0D54020FFF730FE2046BDE80D
:1032D000104002F055BC00BF70B5844B05689D429C
:1032E000044637D003F580539D4220D003F5EE23EA
:1032F00003F580639D4200F088807D4885420CBFC5
:1033000008200020FFF7C8FF794B22689A4215D0A9
:103310006268217A284600F05BF9D0B9637A042B01
:1033200000F2E080DFE803F064564839180002201C
:10333000FFF7B2FF6E4B22689A42E9D1237A012B44
:1033400000F0C480022B00F0AE80002B5FD06FF045
:10335000100070BD0120D5E72B6E626823EA0203DE
:103360002B666B6E13436B66D5F8B83023EA020305
:10337000C5F8B8305E4BA17A9D4243D0284600F094
:103380000FF90028E5D1207A0028E2D06268E17ABE
:103390002846BDE8704000F051B92B6E62681343B7
:1033A0002B666B6E23EA02036B66D5F8B83023EA0E
:1033B0000203C5F8B830DDE72B6E626823EA02032A
:1033C0002B666B6E13436B66D5F8B8301343C5F8A4
:1033D000B830CFE72B6E626813432B666B6E23EA1F
:1033E00002036B66D5F8B8301343C5F8B830C1E7AF
:1033F0002B6E626823EA02032B666B6E23EA0203DC
:103400006B66B7E70029BED1A1E704207AE76368BD
:10341000384958001A010E6A00F0020002F020023A
:10342000024326EA02020A628A68C3F340030343A6
:1034300022EA03038B60637A042B88D8DFE803F069
:10344000261B031B030062682A49D300086A03F0A5
:10345000100302F00106334320EA03030B62560116
:103460009300086A03F0040306F04006334320EAA1
:1034700003030B627EE71F4962680E6AD30002F005
:10348000010003F0100330430343E7E76268194883
:1034900093005101066A03F0040301F040010B435D
:1034A0003343036266E76368124958001A010E6AE3
:1034B00000F0020002F02002024332430A628A68EE
:1034C000C3F34003034313438B60B4E763680949C4
:1034D00058001A010E6A00F0020002F020020243B6
:1034E0003243A0E76FF0020070BD00BF00800040D3
:1034F00000060840006C0040094A904201D000F0EC
:1035000047B8084810B4046ACA0001F00101214319
:1035100002F0100319435DF8044B0162704700BFCD
:1035200000060840006C00400A4A904201D000F0BA
:1035300031B810B4084C0B46C900206A01F01002E3
:1035400003F00101114320EA010121625DF8044BFF
:10355000704700BF00060840006C004002F022BB2C
:10356000034A904201D000F017B8024AD161704777
:103570000006084000680040034B984201D000F06C
:103580000DB8024BD869704700060840006800403B
:10359000C16170470162704781647047006C704779
:1035A00069B1012907D1D0F8C03000211A43C0F811
:1035B000C020084670476FF0020108467047D0F8F7
:1035C000C03023EA0202C0F8C0200846704700BF9E
:1035D0000346006B104318635A6005292AD8DFE8B8
:1035E00001F00A12141B2203C3F8882000209A67F6
:1035F000DA669A6070475A615A6000201A67DA6783
:10360000C3F8882070471A61F6E7C3F888200020C5
:10361000DA671A679A607047C3F888200020DA6773
:10362000DA669A607047C3F8882000209A671A67A4
:103630009A6070476FF00200704700BF032929D8D5
:10364000DFE801F0280F021CD0F8B03023EA0203B3
:10365000C0F8B030D0F8B4301A43C0F8B42000201D
:103660007047D0F8B0301343C0F8B030D0F8B43061
:1036700023EA0202C0F8B42000207047D0F8B0302E
:103680001343C0F8B030D0F8B4301A43C0F8B420B7
:1036900000207047D0F8B03023EA0203C0F8B03001
:1036A000D0F8B43023EA0202C0F8B42000207047FA
:1036B00000F00AB800F016B800F02CB8014B1968F9
:1036C00000F0E8BA6000002048B1036B43F0040347
:1036D0000363036B13F00403FBD1184670474FF0EC
:1036E000FF30704798B191B17AB1002301F1FF3CEE
:1036F00006E0C16A0133C9B29A420CF8031004D043
:1037000041688907F5D518467047104670474FF055
:10371000FF30704798B191B17AB1002301F1FF3CBD
:1037200006E001339A421CF80310C9B2C16204D00A
:103730004168C906F5D518467047104670474FF0E6
:10374000FF3070472DE9F84F054668B3012800F0B7
:10375000B580022800F043810026DFF8E8B2B468A3
:103760005BF820A014F4FE4440F02081DFF8D892EA
:10377000DAF80C2059F82560DFF8D082B24258F808
:103780002570134630D8DAF81410B94248D9A36826
:1037900013F0110F38D1B24200F0EC8049F82560E7
:1037A00048F82570BDE8F88FA34CDFF898B2A368FD
:1037B000DBF800A013F4FE4FD8D0A368A360236900
:1037C00023612046E5606561FFF772FFDBF80000CA
:1037D000C36913B16FF008019847E5606561A3689C
:1037E000A3602369236194E0A368990600F19680A1
:1037F000E36843F02003E360DAF814108F42CDD27F
:10380000A36813F0110FC6D0CA1BDAF810102046B7
:103810003944FFF74FFF1023A360DAF80C30074458
:10382000B342BBD1DAF81410B94240F0A3800023B0
:10383000E3606361A368A360DAF81830226922614B
:10384000002B40F0D780236B43F004032363A3686D
:1038500013F4FE4F784B00F0DB809C4200F00181B6
:1038600003F580539C4200F00F8103F580539C4286
:103870000CBF02234FF0FF335BF82300C369002B1A
:1038800000F0E6806FF0080198470023E360636171
:10389000A268A260684A2169216194420AD0674BFC
:1038A0009C4200F0DC8003F580539C420CBF022355
:1038B0004FF0FF3300224BF8232073E75F4CDFF813
:1038C00084B1A368DBF804A013F4FE4F3FF44EAFBD
:1038D000A368A360226922610023E360204663613C
:1038E000FFF7E6FE5BF82500C3691BB16FF0080126
:1038F00098470023E3606361A368A36023692361A1
:103900004E4B9C427BD04E4DAC420CBF02254FF03B
:10391000FF3500234BF82530BDE8F88FDAF80810A2
:10392000921B31442046FFF7C7FEDAF80C2006440C
:103930002023B242A3603FF65BAFE36823F020038D
:10394000E3607FF459AFDAF8141000293FF46CAF4C
:10395000236B43F0020323630123A360E368B942AE
:1039600043F00103E3607FF65FAFA36813F0110F2C
:103970007FF44AAFA368DB077FF510AF0123A36094
:103980002FB9DAF804305B0043F00103E362CB1B8C
:10399000B3F5807F88BF00232362E3688F4234BF82
:1039A00043F0110323F01103E360F7E6B368B3605B
:1039B000336933613046F6607661FFF779FE5BF874
:1039C000040CC469ECB16FF00801A047F6607661A1
:1039D000B368B360336933614FF0FF3599E7184C32
:1039E000DFF860B0A368DBF808A013F4FE4F3FF4E3
:1039F000BDAE6DE7236B43F00203236327E7012588
:103A000087E7E4606461A368A360236923617AE7C0
:103A10009C4233D003F580539C4237D003F580534A
:103A20009C420CBF02234FF0FF335BF82300C369B5
:103A300073B10021984728E700D0014000E0014021
:103A400000F00140301300203C130020241300201C
:103A5000E3606361A368A360236923611FE7012317
:103A600028E7DBF80000C369002B7FF40BAFE360AD
:103A70006361A268A260226922611BE7DBF8000093
:103A8000C369002BD5D1F2E70123F5E60123CCE78A
:103A90002DE9F041D0F808801F4618F4FE4F4FF092
:103AA000000304460E4615463B605ED06FF00803E7
:103AB0003B6011B13A460421B0476FF07F43A360E9
:103AC00007232361636A43F080036362636A190614
:103AD000FCD4E36943F08003E361E06910F0800007
:103AE000FBD1684B9C42C5E900000AD003F5805326
:103AF0009C4200F0BF80644884420CBF02204FF01B
:103B0000FF30624B002243F820202B686A6892073E
:103B100048D4180702D518F0080F77D103F0010335
:103B20000BB318F0400F00F08B8000233B601EB1F8
:103B30003A4604212046B047524A0023402194428D
:103B4000A160C5E900330AD0514B9C4200F090803F
:103B500003F580539C420CBF02234FF0FF334B4AC6
:103B6000002142F82310BDE8F0811368DA0640F125
:103B7000838018F0100F06D01EB1002202212046CB
:103B8000B0471023A3602369D90706D51EB10022D0
:103B900006212046B047012323612B6848F220020A
:103BA0001342B3D018F0200F06D01EB1002203211B
:103BB0002046B0472023A36023699B0706D51EB18A
:103BC000002205212046B0470223236118F4004F4C
:103BD0001AD000233B601EB13A4604212046B0476C
:103BE000284A00234FF400419442A160C5E9003304
:103BF000B5D0274B9C423BD003F580539C4214BF69
:103C00004FF0FF330223AAE72B6882E7226812F401
:103C100000621ED01EB1002201212046B0474FF4A1
:103C20008003A3600823A3604FF40043A3604FF612
:103C30002171022318F0400FC5E900137FF475AF1E
:103C400018F0010F8FD001220823A2602B60BDE87D
:103C5000F08116B111462046B0474FF40003A3602F
:103C60000823A36047F611720123C5E9002358E732
:103C7000012374E7012044E76A68D0073FF579AF74
:103C80008CE700BF00D0014000F00140301300205D
:103C900000E0014030B5174B984285B0044624D06F
:103CA00003F58053984205D003F5805398421ED007
:103CB00005B030BD012023689B0704D505B0BDE8E1
:103CC0003040FFF73FBDE5680B4B626953F82010A9
:103CD000CDE9025201AB02AA2046FFF7D9FEDDE989
:103CE0000223E260636105B030BD0020E3E70220FB
:103CF000E1E700BF00D001403013002000F000B821
:103D0000D0F80031012223F00103C0F80031C0F8DF
:103D10000027D0F80031DA03FBD5D0F8003143F0AA
:103D20000103C0F80031D0F80031DB03FBD5704748
:103D3000074B08494FF0FF325A60DA605A61DA6186
:103D40001A630B6923F004030B6130BF704700BF97
:103D50000068004000ED00E0014800F009B800BF35
:103D6000006000400146014800F006B800600040D5
:103D7000006900F0D0007047036901F0D00123EA28
:103D800001030361002070472DE9F04F8BB01D4601
:103D9000714B9DF858809DF859909DF85EA09DF854
:103DA0005FB017469DF85C20049298429DF85D2014
:103DB000039204460E467BD0684B98420CD068496B
:103DC00068483822FEF71AFD042D00F3C1806FF019
:103DD00001000BB0BDE8F08F042D00F3B980624BF9
:103DE000159A1B689342C0F0B3809DF860308DF83F
:103DF00026305E4B07932B2000238DF82530FFF7EC
:103E0000FFF93020FFF792F89DF85A30002B40F070
:103E10008E8007AB9DF85B20002A38D1B8F1000FE7
:103E200043D1CDF82080049A1AB1089A42F040029A
:103E30000892039A1AB1089A42F020020892BAF145
:103E4000000F03D0089A42F480720892BBF1000F71
:103E500003D0089A42F400720892B9F1000F03D01F
:103E6000089A42F010020892184602238DF8243076
:103E7000FFF732FA159B0193149B00933A462B46A9
:103E80003146204600F0E6F80BB0BDE8F08F032283
:103E90008DF8242018464FF4806205930892FFF7AE
:103EA0001BFA059BB8F1000FBBD080220892BAE73D
:103EB000042D4DDC2C4B159A1B68B2EB530F47D8E1
:103EC0009DF860308DF82630284B07930D20002395
:103ED0008DF82530FFF794F90620FFF727F8B8F1A1
:103EE000000F31D1CDF82080049B1BB1089B43F417
:103EF00080030893039B1BB1089B43F400130893B2
:103F0000BAF1000F03D0089B43F080730893BBF114
:103F1000000F03D0089B43F000730893B9F1000F22
:103F200003D0089B43F48013089307AB9CE707ABCF
:103F30004FF4006208921846032205938DF824205E
:103F4000FFF7CAF9059B65E74FF400030893CBE739
:103F50006FF002003DE700BF0060044000E00B404E
:103F600070FE0110B4FE01103418002000800040E3
:103F7000104B984210B516D003F5F0239842044632
:103F80000AD00D490D48C622FEF738FC204600F045
:103F9000DFF86FF0010010BD00F0DAF83020FEF716
:103FA000A3FF002010BD00F0D3F80620FEF79CFF11
:103FB000002010BD0060044070FE0110B4FE01102E
:103FC000154B98420FD0154B984222D14FF08043A9
:103FD0009B68C3F34223072B0BD8DFE803F00D0ADD
:103FE0000A0F121714080E4B1868800870470D4806
:103FF00070476FF0060070470B48704743F69820F3
:1040000070470A4870474FF4804070474FF4611082
:1040100070476FF0020070470060044000E00B4002
:104020003418002060343C0280C3C90180F0FA02D9
:1040300000F0E4B800F02CB900F06AB900F072B9F1
:1040400000F090B900F0BCB900F0F2B900F0F4B99A
:1040500000F02CBA2DE9F04798463A4B089F984259
:104060000446154652D003F5F023984208BF4FF09E
:10407000010963D1344E09EB890206EBC20CD00072
:1040800000220123CCE907223250CCF80820CCF8DA
:1040900010206FF00102CCF80C308CF82730CCE9FE
:1040A00005226360294B236163684FEA890A31BBAB
:1040B00023F00203636009992046FFF7B9FFFF2F41
:1040C0003CD8E368D14406EBC90643EA074796F8B3
:1040D0002720E760236A23624AB1B8F1010F20D09C
:1040E000B8F1020F15D1636843F44033636055B1F2
:1040F000E36843F400530020E360BDE8F08743F039
:1041000002036360D7E72846BDE8F0874FF0000957
:10411000B0E7B8F1030F09D1636843F4E0236360AB
:10412000E5E7636843F480336360E0E7B8F1040FC8
:10413000DDD1636843F470236360D8E76FF0020059
:10414000DBE700BF006004404813002001010100CC
:104150002DE9F843264B9842044646D0254EB042FE
:104160000CBF01264FF0FF3600236362236A2362EF
:104170006368214D06EB860023F0010363604FEA7C
:10418000C008E36955F8089023F04013E361B700D5
:1041900005EBC000B9F1000F09D001F0EBFC55F8B8
:1041A00008305B6A1BB148466FF00E019847002348
:1041B0006360A360E3602361BC1905EBC40460691C
:1041C000984204DBFFF744F86FF0010363613E445B
:1041D00005EBC605A869002804DBFFF739F86FF086
:1041E0000103AB610020BDE8F8830026BCE700BFF7
:1041F0000060044000E00B404813002038B5234B1A
:104200001B68B1EB530F3DD80D460446FFF7D8FEAF
:10421000B0FBF5F3580813F00103014623D10F2832
:1042200088BF02462CD9002352100F2A03F1010344
:104230004FEA61011EDD082BF6D14FF400234FF445
:1042400070620F20616921F0FF01014361616169C2
:1042500021F47F410A436261626922F470221343B0
:104260000020636138BD421C0F2ADCDCC0B21202A0
:104270000023E7E7082BE0D0C8B212021B04E1E7F5
:104280000202DFE76FF0020038BD00BF34180020E3
:104290000129034634D0102932DC1B4A90422AD02F
:1042A00002F5F02290420CBF01224FF0FF32186B52
:1042B000C00722D4154802EB820200EBC202D0688C
:1042C00001281AD1586820F0010058601029916027
:1042D000DA680CD0090201F4706122F470621143B3
:1042E000D9605A6842F0010200205A60704722F4F7
:1042F0007062DA60F5E70022D9E76FF006007047D8
:104300006FF00200704700BF0060044048130020B7
:10431000C36813F4706F1ABFC068C0F30320102085
:10432000704700BFC36823F43043C360032907D834
:10433000DFE801F0120E0802C36843F40053C360C3
:1043400000207047C36843F48053C3600020704767
:10435000C368C36000207047C36843F40043C36070
:104360000020704703290BD8DFE801F00220160C6B
:10437000C36823F00103C360C36823F00203C36072
:1043800000207047C36843F00103C360C36843F073
:104390000203C36000207047C36823F00103C360B9
:1043A000C36843F00203C36000207047C36843F052
:1043B0000103C360C36823F00203C3600020704799
:1043C000A1B3F8B514460AB90020F8BD06460D465B
:1043D000FFF73AFE07463046FFF72EFEBC4228BFE5
:1043E0003C46082888BF24F001040346002CEBD08B
:1043F000082B4FF000000BD9032C10D9316829503D
:10440000043C0430012CE0D0002CDED0082BF3D883
:1044100031782954013C0130002CF7D1D5E7012C2B
:10442000D3D031882952023C0230EBE7002070479C
:10443000C069C0F305607047A9B3F8B514460AB95E
:104440000020F8BD06460D46FFF702FE074630463F
:10445000FFF7F2FDBC4228BF3C46082888BF24F085
:1044600001040346002CEBD0082B4FF0000009D9C3
:10447000032C0ED929583160043C0430002CE0D0C4
:10448000082BF5D8295C3170013C0130002CF7D1A4
:10449000D7E7012C06D0295A3180023C0230002C8B
:1044A000EED1CEE7FEE70020704700BFC069C0F341
:1044B0000520C0F120007047F0B5B24B984283B0A0
:1044C00004460D46164631D003F5805398421FD05E
:1044D000AD4B984200F0E38003F58053984200F022
:1044E000E28003F5DB2303F58063984200F09E80B1
:1044F00003F58063984200F0DA80002900F00F8114
:10450000A249A3483122FEF779F94FF0FF3703E0C3
:10451000002900F004810127EB78023B042B00F214
:104520002981DFE803F00C241A080800002900F0B4
:10453000F6800027F0E76FF0100003B0F0BD002018
:10454000FEF71AFD9349204600F054F90122032F8B
:1045500029D8DFE807F043572F160620FEF70CFD99
:104560004FF40041204600F045F90322EFE7052013
:10457000FEF702FD4FF4E101204600F03BF9022274
:10458000E5E708200192FEF73BFE1220FEF7CEFC85
:10459000019A46B1AB78022B12BF7F487F48019247
:1045A000FEF79AFE019A2946204603B0BDE8F04086
:1045B00000F012BA07200192FEF722FE1120FEF74A
:1045C000B5FC019A002EEED0AB78022B12BF7448D6
:1045D00074480192FEF780FE019AE4E705200192FB
:1045E000FEF70EFE0F20FEF7A1FC019A002EDAD096
:1045F000AB78022B12BF6C486C480192FEF76CFE40
:10460000019AD0E706200192FEF7FAFD1020FEF78E
:104610008DFC019A002EC6D0AB78022B12BF6448E5
:1046200064480192FEF758FE019ABCE7002976D053
:10463000CB78023B042B00F2938001A252F823F0C6
:10464000374500108B4600100B47001055460010F0
:10465000374500100320FEF78FFC574847F23051D2
:1046600000F0C8F8022255480192FEF735FE4220BC
:10467000FEF7C6FD4220FEF759FC019A2946204666
:1046800003B0BDE8F04000F0A7B90520FEF774FCC8
:1046900049484FF4E10100F0ADF80022E3E70029BA
:1046A0003DD0022738E7002939D0032734E7002915
:1046B00035D0CB78023B042B48D801A252F823F026
:1046C00037450010394700103745001025470010C6
:1046D000D54600100520FEF74FFC39484FF4612104
:1046E00000F088F8012237480192FEF7F5FD4320DB
:1046F000FEF786FD4320FEF719FC019A2946204665
:1047000003B0BDE8F04000F067B90620FEF734FCC6
:1047100029484FF4004100F06DF80122A3E74FF063
:10472000FF300AE70320FEF727FC254847F2305107
:1047300000F060F80222D6E70520FEF71DFC2048B5
:104740004FF4E10100F056F80022CCE71E4B1C4864
:10475000196800224908019200F04CF8019AC2E75A
:10476000194B1548196800224908019200F042F8D7
:10477000019A78E7144B19682046490800F03AF886
:104780000022E4E60000014000200140C4FE0110C8
:1047900008FF01100087930310FE01101CFE01109A
:1047A000F8FD011004FE0110C8FD0110D4FD011038
:1047B000E0FD0110ECFD0110000C084028FE011086
:1047C0000010084034FE01103418002000F068B9D1
:1047D00000F094B900F0BEB900F0E8B900F014BAE6
:1047E00001F024BA01F03ABA01F02ABA01F02CBA69
:1047F00000F07CBA1A4B984210B50C4626D003F54F
:104800008053984219D003F58053984222D003F583
:104810008053984220D003F5DB2303F58063984250
:1048200016D003F58063984218D098220D490E489F
:10483000FDF7E4FF4FF0FF3200E001220B4B03EBEA
:10484000C201012003F832004C6010BD0022F5E7E0
:104850000422F3E70222F1E70322EFE70522EDE766
:104860000000014014FF011008FF01109813002000
:1048700008B51B4B984226D003F58053984219D0B7
:1048800003F58053984222D003F58053984220D0FC
:1048900003F5DB2303F58063984216D003F58063AC
:1048A000984218D0A2220F490F48FDF7A7FF4FF0FA
:1048B000FF3200E001220D4B13F8321069B103EB17
:1048C000C203586808BD0022F5E70422F3E702227C
:1048D000F1E70322EFE70522EDE76FF0060008BDE0
:1048E0000000014014FF011008FF01109813002080
:1048F000364B984270B504460D461AD003F58053E6
:10490000984216D003F58053984212D003F5805395
:1049100098420ED003F5DB2303F58063984208D05C
:1049200003F58063984204D029492A48B022FDF754
:1049300065FF002D3CD095F802C02369BCF1020F41
:104940000CBF4FF080414FF4804143EA01030BBF9D
:104950006FF0005E6FF4005E4FF080724FF4807273
:1049600023610BBF4FF4803601264FF4002008204E
:104970000CBF10210021A3690342FCD06B78206991
:104980008B4003432361AB6820691B028B400343C8
:1049900023612660E3681342FCD06B6803FA01F1DF
:1049A0006160A369BCF1020F03EA0E03A36100D0AA
:1049B00070BDA36943F08073A361236943F0004392
:1049C0002361A3695B03FCD570BD00BF00000140FB
:1049D00014FF011008FF01102E4B984270B50446D9
:1049E0000D4616461AD003F58053984216D003F5AB
:1049F0008053984212D003F5805398420ED003F5AD
:104A0000DB2303F58063984208D003F58063984266
:104A100004D0214921483C22FDF7F0FE002D34D07E
:104A2000A878022826D010F0030329D11946A369DB
:104A300043F00043A361E36843F00113E3602B7884
:104A400006FA01F28B4021690B432361A3691A43E3
:104A5000A2616B78072B1BD8DFE803F0060604047D
:104A60000406040402280DD020462946FFF740FF23
:104A7000002070BD1021A36923F00043A361DAE791
:104A80000021F8E76FF0100070BD4FF0FF3070BDEF
:104A9000002070BD0000014014FF011008FF01104C
:104AA000134B984210B504461AD003F58053984230
:104AB00016D003F58053984212D003F580539842E4
:104AC0000ED003F5DB2303F58063984208D003F58D
:104AD0008063984204D007490748E522FDF78EFE1F
:104AE000236943F400432361A3695B07FCD510BD30
:104AF0000000014014FF011008FF0110124B984202
:104B000010B504461AD003F58053984216D003F529
:104B10008053984212D003F5805398420ED003F58B
:104B2000DB2303F58063984208D003F58063984245
:104B300004D006490648EF22FDF760FE236923F4FE
:104B40000043236110BD00BF0000014014FF0110AD
:104B500008FF0110124B984210B504461BD003F514
:104B60008053984217D003F58053984213D003F531
:104B7000805398420FD003F5DB2303F580639842FE
:104B800009D003F58063984205D0064906484FF4E2
:104B90009D72FDF733FEE36843F00113E36010BD3F
:104BA0000000014014FF011008FF011038B5134B3D
:104BB000984204460D461BD003F58053984217D007
:104BC00003F58053984213D003F5805398420FD0D9
:104BD00003F5DB2303F58063984209D003F5806376
:104BE000984205D00649074840F28312FDF706FEB9
:104BF0002560E368DB05FCD538BD00BF000001403F
:104C000014FF011008FF011070B5324B984284B0B8
:104C100004460D461BD003F58053984217D003F588
:104C20008053984213D003F5805398420FD003F578
:104C3000DB2303F58063984209D003F58063984233
:104C400005D0254925484FF4C872FDF7D7FD002D42
:104C50003BD02349234A0E687608A6FB055600235D
:104C60002846314607F0E8FE1F4A03464FF0FF3062
:104C7000A842B2412BD2002215465B0843EAC17319
:104C800098424FEA510175EB010602F10102F4D39B
:104C90001201D1B200252046CDE902358DF804106D
:104CA0008DF80550ADF80650FFF792FD2A4601A990
:104CB0002046FFF701FCA36943F000432046A361AF
:104CC000FFF788FD2046FFF781FD04B070BD00218D
:104CD000E0E700BF0000014014FF011008FF0110D1
:104CE0003418002040420F003F420F002DE9F84FDA
:104CF0004A4DA84204460E46924699461AD0484B61
:104D0000984217D003F58053984213D003F580538F
:104D100098420FD003F5DB2303F58063984209D056
:104D200003F58063984205D03E493F484FF4DC725A
:104D3000FDF764FD20462569FFF79AFD071E4BDB52
:104D4000C5F30318012303FA08F84FEAE873A8FB38
:104D5000068106FB031674014FEA4815B5EB0805FA
:104D600044EAD86464EB0604A40044EA9574AD00F8
:104D700015EB08052D4A46EB040482FB0732E400DC
:104D80004FEAE77B44EA5574CBEBA242ED00D31720
:104D90002846214607F050FE09B3254A82FB073218
:104DA000CBEBA212D3172846214607F045FEF1B1FE
:104DB000284621463A465B4607F03EFE09B33A468E
:104DC0005B464046314607F037FE19BB0323CAF85D
:104DD00000000F4689F800303846BDE8F88FCAF861
:104DE00000000F4689F800103846BDE8F88F4FF0F4
:104DF0000103CAF800000F4689F800303846BDE8C4
:104E0000F88F0223CAF800000F4689F800303846B0
:104E1000BDE8F88F6FF00307DEE700BF0000014038
:104E20000010014014FF011008FF011083DE1B4336
:104E3000D34D621000F024BD00F05ABD08B5174BE9
:104E4000984210D0164B984215D0164B98421AD063
:104E5000154B98421FD14420FEF7D2F94420FEF7AB
:104E600043F8002008BD0B20FEF7CAF90920FEF721
:104E70003BF8002008BD0C20FEF7C2F90A20FEF71F
:104E800033F8002008BD1C20FEF7BAF92120FEF7F8
:104E90002BF8002008BD6FF0020008BD0020044080
:104EA00000300440004004400014084070B504463F
:104EB0000E461546FFF7C2FFA8BB022D2DD0042DCC
:104EC00018D0204B9C421BD01F4B9C422CD01F4B18
:104ED0009C4230D01E4B9C4223D11E48FEF7FCF969
:104EE0004420FEF723F82A4631462046BDE87040AC
:104EF00000F00AB90620FEF73FF8124B9C42E3D1BE
:104F00001548FEF7E9F90920FEF710F82A46314660
:104F10002046BDE8704000F0F7B80520FEF72CF8F9
:104F2000CFE76FF0020070BD0C48FEF7D5F90A20FC
:104F3000FDF7FCFFD7E70A48FEF7CEF92120FDF781
:104F4000F5FFD0E70020044000300440004004405A
:104F50000014084064FE011040FE01104CFE0110D8
:104F600058FE0110304B984210B5044616D003F598
:104F70008053984212D003F5805398420ED003F527
:104F80007533984207D10523022A436143D0042A8E
:104F900013D0002A3FD06FF0020010BD042AFAD0CF
:104FA000204600F0E9F80028F7DD236843F40043C9
:104FB000236023681B03FCD510BD02684FF48033C7
:104FC0001A4302600068B3FBF1F340F40010B1F53E
:104FD000166F206001FB03F28CBF00200120C2F598
:104FE00080326061ABB1B2EB510F12D80F4A13613E
:104FF000106800F44030B0F5803F05D0136813F41A
:10500000403FC8D14FF4E100084B1B69B0FBF3F0FF
:10501000C9E70133EAE74FF4E103B3FBF1F301FB26
:1050200003F2C2F5E102DDE700200440001408406D
:10503000124B98421CD003F58053984218D003F5C8
:105040008053984214D003F57533984212D1036807
:1050500003F44033B3F5803F05D0036813F4403FB9
:1050600008D14FF4E103064A1069B3FBF0F0704732
:1050700000F0D0B86FF00200704700BF002004407D
:105080000014084000F004B900F022B900F046B95D
:1050900000F09EB900F0B8B900F01CB800F026B8D6
:1050A00000F0D0B900F0E4B900F0E6B900F0FAB9C8
:1050B00000F0FEB900F01ABA00F038BA00F03ABABF
:1050C00000F03ABA00F050BA00F068BA00F082BAC4
:1050D00000F02ABC10B504462046FFF7E3FF002885
:1050E000FAD02046BDE81040FFF7D2BF38B50446DD
:1050F0000D462046FFF7DAFF0028FAD02946204661
:10510000BDE83840FFF7C6BF1A4B984270B5044659
:105110000D4616460BD003F58053984207D003F591
:105120008053984203D003F5753398421FD1012173
:105130002046FFF7BFFF00B170BD08212046FFF7F2
:10514000A1FF0028F8D101462046FFF79FFF002865
:10515000F2D101462046FFF797FF0028ECD13246F6
:1051600029462046FFF7FEFE00EAE07070BD6FF0B2
:10517000020070BD00200440234B98420BD003F581
:105180008053984207D003F58053984203D003F52B
:105190007533984234D10523012A10B4436125D0D8
:1051A000022A16D022B16FF002005DF8044B70475E
:1051B000164B1A685208B2FBF1F301FB132213B12C
:1051C000B2EB510F00D901335DF8044B0361FFF7D7
:1051D0002FBF04684FF4E10344F40034B3FBF1F350
:1051E00001FB03F2C2F5E1020460E8E70468084A43
:1051F000B2FBF1F344F48034046001FB1322DEE7D8
:105200006FF00200704700BF0020044034180020F7
:10521000C06878041B4B98420BD003F5805398422A
:1052200007D003F58053984203D003F575339842B5
:1052300025D1036803F44033B3F5803F14D00368ED
:1052400013F4403F06D1104B00691B685B08B3FBA9
:10525000F0F07047036803F44033B3F5003F08D023
:1052600003686FF002007047084B0069B3FBF0F071
:10527000704700694FF4E103B3FBF0F070476FF043
:10528000020070470020044034180020C0687804F1
:105290000E4A904203460BD002F58052904207D04E
:1052A00002F58052904203D002F5753290420AD145
:1052B0000539032907D81A6822F4406242EA81219D
:1052C0000020196070476FF0020070470020044012
:1052D000114B98420BD003F58053984207D003F549
:1052E0008053984203D003F57533984202D161B1DF
:1052F000012903D06FF002010846704703680021BE
:1053000043F48053036008467047036823F48053D6
:1053100003600846704700BF002004402B4A9042BB
:1053200003460BD002F58052904207D002F580521E
:10533000904203D002F57532904244D1042942D8FC
:10534000DFE801F01117253303001A6842F010025C
:105350001A601A6842F020021A601A6842F040028D
:1053600000201A6070471A6822F0100200201A60AC
:1053700070471A6842F010021A601A6822F0200280
:105380001A601A6822F0400200201A6070471A68FA
:1053900042F010021A601A6822F020021A601A689D
:1053A00042F0400200201A6070471A6842F0100272
:1053B0001A601A6842F020021A601A6822F040024D
:1053C00000201A6070476FF0020070470020044010
:1053D0000C4B98420BD003F58053984207D003F54D
:1053E0008053984203D003F57533984204D1436843
:1053F000DB0604D4006A70476FF0020070476FF05C
:105400000C007047002004400D4B98420BD003F570
:105410008053984207D003F58053984203D003F598
:105420007533984206D1436813F0800305D10162B9
:10543000184670476FF0020070476FF00B0070471E
:10544000002004408AB110B40139002305E0013383
:10545000046A01F8014F9A4203D04468E406F6D585
:105460001A4610465DF8044B70471046704700BF5F
:105470004068C0F3032070478AB110B4013900239B
:1054800005E0013311F8014F04629A4203D04468E9
:105490002406F6D51A4610465DF8044B70471046B0
:1054A000704700BF4068C0F30330C0F10800704788
:1054B0000D4B98420BD003F58053984207D003F56B
:1054C0008053984203D003F57533984209D103689D
:1054D00043F480730360036813F48073FBD11846B0
:1054E00070476FF002007047002004400E4A90425F
:1054F00003460BD002F58052904207D002F580524D
:10550000904203D002F57532904209D14A1E072A13
:1055100006D81A6822F00F02114300201960704764
:105520006FF00200704700BF00200440006800F0E8
:105530000F007047C06870470A4B98420BD003F5C4
:105540008053984207D003F58053984203D003F567
:105550007533984202D1C160002070476FF002009D
:10556000704700BF002004400B4A904203460BD016
:1055700002F58052904207D002F58052904203D04B
:1055800002F57532904204D19A6811430020996067
:1055900070476FF002007047002004400C4A9042B0
:1055A00003460BD002F58052904207D002F580529C
:1055B000904203D002F57532904205D19A6822EAF2
:1055C00001010020996070476FF00200704700BF32
:1055D00000200440F8B5794B04460068984200F07A
:1055E000B58003F5805398425BD003F58053984211
:1055F00000F0B28003F57533984240F0CE80032569
:105600006F4F704E57F82530002B51D056F825308B
:105610001BB12369002B40F0B980E368002B40F0F8
:10562000B580C4E905332069002839D0A368002B70
:1056300000F0B9802068614B984200F08F8003F53C
:105640008053984200F08C8003F58053984200F01C
:10565000818003F5753398420CBF03234FF0FF336D
:105660000B2146F82340FFF72DFD10212068FFF79E
:1056700029FD2068FFF716FDA1692369A5685A1A5C
:10568000824228BF024629442068FFF709FDA3692A
:10569000024613442068A3611021FFF711FD00208A
:1056A000F8BD474F474E012557F82530002BADD1A7
:1056B00056F82530002B57D02369002B66D1E268BD
:1056C0000023C4E90533002AADD06268002A67D000
:1056D00020683A4A90420DD03B4B984242D003F5A5
:1056E0008053984234D003F5753398420CBF03239E
:1056F0004FF0FF33402147F82340FFF7E3FC2068D9
:10570000FFF7D4FC6169E3685A1A6368824228BFD4
:10571000024619442068FFF7C7FC636903446361CC
:105720002068FFF7C3FC03287FF67DAF6269E3685A
:105730009A427FF478AF15B3012D2AD0022D0BBF0A
:1057400004224FF08072012502251AE0002557E758
:105750000223CFE7022383E7022551E700237FE7F7
:1057600001237DE70123C5E74FF0FF31FFF7ACFCD4
:1057700020684FF0FF31FFF7A3FCE268A0E74FF489
:105780008042124B403543F825204CE76FF005006E
:10579000F8BD4FF400420025F3E76FF00300F8BDB9
:1057A0006FF00200F8BD4FF0FF312068FFF78CFC6E
:1057B0002068FFF77DFC6FF00200F8BD0020044078
:1057C000D8130020C81300200030044000E100E09E
:1057D00038B5134B98421AD003F58053984214D031
:1057E00003F58053984216D003F57533984214D1CF
:1057F00003220C4B53F8220030B1C5694DB100248F
:1058000043F82240A847204638BD0122F1E7002294
:10581000EFE7284638BD0222EBE76FF0020038BD03
:1058200000200440D813002038B5134B98421AD0FA
:1058300003F58053984214D003F58053984216D054
:1058400003F57533984214D103220C4B53F8220010
:1058500030B1C5694DB1002443F82240A847204625
:1058600038BD0122F1E70022EFE7284638BD0222C9
:10587000EBE76FF0020038BD00200440C8130020A1
:1058800030B5184B984283B0044626D003F58053B8
:1058900098421ED003F5805398421CD003F575330F
:1058A00098421CD1032520460191FFF791FF0E4A33
:1058B0000E4B52F8252053F825309A4206D0019914
:1058C0002046FFF7B1FF002003B030BD002003B039
:1058D00030BD0125E7E70225E5E70025E3E76FF0A6
:1058E0000200F1E700200440C8130020D813002074
:1058F00008B50C4B98420BD003F58053984207D063
:1059000003F58053984203D003F57533984205D1CF
:105910004FF0FF31FFF7D8FB002008BD6FF0020009
:1059200008BD00BF00200440884B98422DE9F04795
:10593000054600F0C18003F58053984276D003F508
:105940008053984200F0998003F57533984240F0F7
:10595000E8804FF00308DFF8F8912846FFF7AEFB28
:1059600059F8286004461EB3AB68034013F00B0FD0
:1059700040F0DA80F368002B5BD1DFF8D8A15AF849
:1059800028706FB1E30623D45AF8282059F828600C
:10599000964200F0948091691269914273D026B1C9
:1059A0007269F3689A4200F09D800020BDE8F0879C
:1059B000DFF8A0A15AF82870002F00F0C080AB6873
:1059C000034013F00B0F40F0AF8010F0100357D0DE
:1059D0003B69002BD8D03868FFF764FBBB693A6994
:1059E000B968D31A834238BFB869BB6938BF101A87
:1059F000024619443868FFF753FBBB691844B86185
:105A0000BC693B6938681C1BFFF756FB8442C0F039
:105A1000818038681021FFF753FB5AF8282059F885
:105A20002860B2424BD0002AB5D1B8E74FF0010848
:105A300091E73068DFF81CA1FFF738FB7369F26863
:105A40007168D31A834238BF7069736938BF101AFE
:105A5000024619443068FFF727FB736918447061E8
:105A600040213068FFF72CFB5AF82870002F89D1AD
:105A700059F82860002E98D092E74FF002086AE7A4
:105A80003A461E4687E7314B9D420BD003F58053C3
:105A90009D4207D003F580539D4203D003F5753333
:105AA0009D4203D10B212846FFF70EFB002128461B
:105AB000FFF7BAFE002079E74FF000084BE7BA691C
:105AC0003B699A427FF471AF7A69FB689A427FF42E
:105AD0006CAF2846FFF7B0F900212846FFF7AAF976
